:040000006F20A01CB1
:1000040000000000000000006F20C0186F20A0183E
:1000140011BFF9F70000000000000000000000001C
:1000240000000000000000000000000000000000CC
:100034006F208016000000006F20201600000000D2
:100044006F20C0156F00B01C6F2080156F206015E5
:100054006F00D01B6F00302B6F2000156F20E01451
:100064006F20C0146F10304B6F2080146F20601409
:100074006F2040146F2020146F2000146F20E013B1
:100084006F20C0136F20A0136F2080136F206013A4
:100094006F2040130000000000000000000000007A
:1000A400000000000000000000000000000000004C
:0C00B40000000000000000000000000040
:1000C000B78700401307001498C34947D8C3375770
:1000D0004C00130717B4B786004011A03DCB9C4AD3
:1000E0007D17918BE5FF23AE060623AC060623A6FB
:1000F000060823A4060823AE060823AC060823A698
:10010000060A23A4060A23AE060A23AC060A23A67F
:10011000060C23A4060C23AE060C23AC060C23A667
:10012000060E23A4060ECD47DCD2B7070300938743
:1001300017029CD2B7C7100023A806069387D7C71B
:100140009CC69C42014593E727009CC28947DCC2BC
:100150008280054582804545828093178501E1872D
:100160001D8963CC0700C1673395A700B78700409E
:10017000B85B81CD3A95A8DB8280B7070001339543
:10018000A700B7870040B85BF5F51345F5FF798DFB
:10019000A8DB8280B787004088DF8280B787004075
:1001A0002147D8D3985311C5B7060800369798D37E
:1001B0008280B706F8FFFD16758F98D38280B787C7
:1001C00000409387870712053E951C4113D707010E
:1001D0002310F6007D8BF5832380E500858B23803B
:1001E000F6008280B78700409387870712053E9507
:1001F0001C414206EA054D8E5D8E10C18280B78794
:1002000000409387870712053E951C413707E0039E
:10021000F98F1CC18280B78700409387870712053A
:100220003E951C41860785831CC18280B7870040AC
:100230009387870712053E9508416181137505086C
:100240008280B78700409387C70712053E95C20694
:100250006A061C41D18E1377F77FD98EF205CD8EB9
:10026000DD8E14C18280B78700409387C7071205CF
:100270003E951C41860785831CC18280B78700405C
:100280009387C70712053E951C413707E003F98F96
:100290001CC18280B78700409387C70712053E952F
:1002A00008416181137505088280B78700409387F4
:1002B000C70712053E95084141817D898280937769
:1002C000F50062058A079A056185CD8F63480500B0
:1002D00093E71700378700407CC3828093E737009D
:1002E000378700407CC38280378700401C536205FB
:1002F000A207A1831CD31C535D8D08D38280B786CF
:100300000040DC4237870040F19B5D8DC8C21C4B2A
:10031000918BF5FF8280B78700408853618182808E
:10032000B7870040A85F1375F57F8280411122C412
:10033000378400405C5006C6858BC1C75C5058505E
:10034000A18331839D8B058BB9EF71EB3C5C1397D7
:1003500017006359070E232C040678587458B70702
:1003600002203E97B69783C707000344070093F720
:100370000706639C070EA12962046184C167634D6F
:1003800004101387F7FF630BE512630205141307CC
:1003900000206366A70437870040B706010434DFF6
:1003A00085077CC32DA8FD178A0739E7370700208A
:1003B000130787012244BA97B24003A3C701410142
:1003C00002835C50898B85C33C4C1307000A93F76A
:1003D000071E638EE702B78700400947D8D3B240B3
:1003E0002244410182805C50A18BF5DB0858EF105C
:1003F000C04AA1475CD0E5B7370700201307870143
:100400002244BA97B24003A3070041010283930735
:10041000002C3CC423260404232804046DBF9D2B18
:1004200083A6C184850623A6D18431E123A6018455
:10043000B70701147CDCB70701043CDC9307100408
:100440007CC071BF3C5C13972700635807007D2375
:10045000232E0406232C040659B7792BB707010471
:100460003CDC930710047CC09DBFE92431B7232CEA
:1004700004067C5C03A7C184B70620EC938606C003
:100480005607F58FD98FC98F37070114D98F7CDCB8
:10049000930710047CC0A1B7FD176301F50205C9DD
:1004A00093070020E3EDA7F237070114B787004058
:1004B000598DE8DF13071004F8C315B7B78700405C
:1004C00037070108F8DF13071004F8C309BFB7871F
:1004D000004037070104B8DF13071004F8C301B761
:1004E0002A8309CA83830500230073007D16050350
:1004F00085056DFA82802A8311C62300B3007D161C
:10050000050365FE8280411122C4371427071305B5
:1005100004E006C6EF101033130504E0A528B73732
:10052000004005462387C74041472396E74013070D
:1005300070FC2381E7400D47A381E74013070004C7
:10054000A380E740B7170040F44F37E700E0375586
:10055000FE0393E60618F4CFB4431305056C93E647
:100560000610B4C3B797004023A00700B7071000D8
:100570002320F710B70720002320F710B707020049
:100580002320F710B72700402381C70059200545D5
:10059000A52201A0B7177A00938707203355F502EB
:1005A0009307803E1375F50FB307F5022383A182ED
:1005B0002392F1828280B7F700E023A0070003C7EF
:1005C0006182930610103305A70237F700E0C8C711
:1005D00023A8070094C35C4B898BF5DF5C4BF59B2C
:1005E0005CCB828003D74182B7F700E023A00700ED
:1005F0003305A7029306101037F700E0C8C723A8F9
:10060000070094C35C4B898BF5DF5C4BF59B5CCB9F
:100610008280B7270040C8C709472380E7005147B9
:100620002380E70082804111416706C6B7870040FA
:100630007D17B8DB3777022013070700B768022061
:10064000F8DB938808003758022023A01709130805
:1006500008003745022023AA070913050500B7350E
:10066000022023A0A70A938505003726022023A88D
:10067000B70A13060600B716022023A0C70C9386FC
:1006800006003707022023A8D70C1307070023A072
:10069000E70E23A2170923A8070923A2A70A23AA62
:1006A000B70A23A2C70C23AAD70C23A2E70E114630
:1006B00085450545053E11468545094525361146C2
:1006C00085450D450536114685451145213E1146A6
:1006D00085451545013E114685451945213611468A
:1006E00085451D450136B240130700409146054639
:1006F000854509454101B1B6411106C609C9C9324E
:100700001DC50D651305C5FAEF10F04501A009459B
:10071000FD36B78700401307800298C34D47D8C302
:10072000B24023A40700194798D341018280B24008
:100730004101D5BD01113775022022CC26CA93078D
:10074000050006CE4AC84EC652C403D4670003C78C
:1007500017002386E18223A88182894503C8070008
:100760006300B702FD5741642386F1827D14F24095
:1007700022856244D2444249B249224A05618280BC
:1007800003C747009547E31FF7FC9307E00822895A
:1007900063F8870023A8F1821304E0081309E00836
:1007A0008D65138A85FB620823A441831358884111
:1007B0006345080023A801825DBF4A86938585FBB7
:1007C000130505005299293B23A42183E5B70111A4
:1007D0003775022026CA4AC81307050006CE22CC68
:1007E0004EC652C456C283471700835467002386FF
:1007F000F18223A891822D466360F604C9C3138455
:10080000F7FF0546331486001374545031E09545C4
:10081000638CB7029945638FB702FD57C164238685
:10082000F182FD14F24062444249B249224A924A9E
:100830002685D2440561828013060003638AC700BF
:1008400013061003E39BC7FC8347270023A8F1820C
:100850008144C9BF834737008D456389B70A63E781
:10086000F502638BC7080947639FE7049307800C71
:10087000268A63E297048D699389C90915A0854783
:100880002310F50023A80182894469BF3D47639C7A
:10089000E702D947268A63E597028D69938989041F
:1008A000CE85528613050500D2991D3923A8818271
:1008B00023A4318385BF9304800C130A800C65BF89
:1008C000D944594AD9BFFD572386F18293070020A6
:1008D000268A63F49700130A00201307002083A9D7
:1008E000818233844441A687637497009307002074
:1008F00093940701C1806DB7C947268A63F49700B6
:10090000C944494A8D699389491659BF034727004D
:1009100009466304C706636EE60039C7A147268A05
:1009200063F49700A144214AB70900209389890BF9
:1009300085BF6300F7029307E00EE316F7F8C94797
:10094000268A63F49700C944494A8D699389090648
:1009500081BFD947268A63F49700D944594AB70919
:100960000020938909002DBF9147268A63F49700E0
:100970009144114A9389018125B793076002268A21
:1009800063F6970093046002130A60028D699389ED
:10099000490739B703C7C18299476304F700014586
:1009A0008280011152C426CA83A4018322CC06CEC0
:1009B0004AC84EC693070020268463EC970203A919
:1009C0008182377502202286CA8513050500093EFB
:1009D000818C2299F24013150401624423A891826C
:1009E00023A42183D2444249B249224A418105616C
:1009F000828013040020E1B70145828003C7C182D1
:100A000095476303F700828003A501836FF0DF8DB4
:100A100031BA411126C23727004006C622C4854795
:100A20002303F70003C74183630BF70803C7418320
:100A30008D47631BF7028547238AF18237270040E1
:100A400023010700B7E700E0B4434146B0C33706CF
:100A5000020023A0C718B4C389472300F700B2409F
:100A6000224492444101828037E400E03840C1478B
:100A70003CC0B70610002320D41838C038403CC012
:100A8000B70720002320F41838C00945EFF03F874E
:100A9000B78700401307800298C34D47D8C323A4EB
:100AA0000700194798D3B797004023A00700B7075E
:100AB00000022320F4100545EF00906EADBF238A9D
:100AC0000182B7E700E0B4434147B8C337061000DE
:100AD00023A0C718B4C3B443B8C33707200023A06A
:100AE000E718B4C30945EFF09F81B78700401307AB
:100AF000800298C34D47D8C3B240224423A40700C4
:100B0000194798D3924441018280411122C437840D
:100B100000405C4426C2856406C6E58F63990726BB
:100B2000378700405C47858BB9CF85475CC783C654
:100B3000518381CE9306002834C7B7060200910680
:100B400074C723280704A38A01820D47238AE18200
:100B5000B7E700E0B4434147B8C33706020023A01B
:100B6000C718B4C30946B72600402380C6002381B6
:100B70000600B443B8C33707000223A0E718B4C384
:100B80000145EF00F061378700405C47918B639E21
:100B90000726378400405C44A18B63970720378782
:100BA00000405C47B7061000F58F639A071E378434
:100BB00000405C4493F7074091CF930700405CC42A
:100BC0001C48858BBDC70945EFF06FF35C40056796
:100BD000D98F5CC0B7860040D84685679387078069
:100BE0007D8F63160728378400405C440967F98FBE
:100BF00063930722378400405C44A166F58FBDE70C
:100C0000378400405C4493F70704639407163784E5
:100C100000405C4493F70702639007143784004058
:100C20005C44C18B63900712B2402244924441015C
:100C300082801305007D23240400B53A0945EFF0B6
:100C40000FEC930780021CC0CD475CC02324040036
:100C5000994751451CD07932EFF08FC663070522C2
:100C60000D651305C5FAEF10007001A01C50370682
:100C700000800147D18F1CD054C401468146814574
:100C80000545232E0406EFF0CFDB014781460146E0
:100C900081450945EFF0EFDA01478146014681457C
:100CA0000D45EFF00FDA01478146014681451145B8
:100CB000EFF02FD901478146014681451545EFF0F8
:100CC0004FD801478146014681451945EFF06FD75E
:100CD00001478146014681451D45EFF08FD601460B
:100CE00081450545EFF00FD0014681450945EFF0FC
:100CF0006FCF014681450D45EFF0CFCE01468145CE
:100D00001145EFF02FCE014681451545EFF08FCD0F
:100D1000014681451945EFF0EFCC014681451D455F
:100D2000EFF04FCC0145EFF02FDC5C4041777D17B1
:100D3000F98F5CC0378400405C4493F70704E38874
:100D400007EC05A80945EFF08FDBC147B2405CC452
:100D500022449244410182800945EFF04FDA930723
:100D600000025CC4378400405C44C18BE38E07EA18
:100D7000D1BF0545EFF0AFD8930700045CC43784BA
:100D800000405C4493F70702E38A07E8F1B7930752
:100D900020141CC00145EFF08FD644C451B354C792
:100DA0000945EFF0CFD521B5A1475CC405470945FA
:100DB000238AE182EFF0AFD4930780021CC0CD47B5
:100DC0005CC02324040099471CD0B7E700E0B4437B
:100DD0004147B8C33706100023A0C718B4C309465B
:100DE000B72600402380C60023810600B443B8C361
:100DF0003707020023A0E718B4C33707000223A077
:100E0000E7100545EF00D03959BB91475CC709454C
:100E1000EFF0EFCEBDBB58C40945EFF04FCE09450A
:100E2000EFF0EFCD930780021CC0CD475CC02324B8
:100E30000400994751451CD0EFF0CFFAEFF04FA8CE
:100E40001DEDEFF04FFE0145EFF00FCA5C40378714
:100E5000004093E707105CC01C4B898BF5FF5C4397
:100E6000094593F7F7EF5CC3EFF0EFF461B3054684
:100E7000A38AC182DCC60145EFF06FC8ADB30D6532
:100E80001305C5FAEF10204E01A0EFF0CFF999B38A
:100E90004111054506C6EFF04FC109CD0547630373
:100EA000E5060947630EE5020D47630EE506B2400D
:100EB00041018280B767022093870700378700408F
:100EC00005452320F708EFF06FBB85450545114622
:100ED000EFF04FB1B2409145054541016FF02FBE93
:100EE0000545EFF0AFB98545054513070040894634
:100EF0000546EFF00FB58945B240130510084101D2
:100F00006FF0EFBBEFF08FB7854505451307004045
:100F100085460546EFF0EFB2B2408545130510084F
:100F200041016FF0CFB90545EFF04FB58545054557
:100F3000130700408D460546EFF0AFB08D456DBFFD
:100F40004111094506C6EFF04FB609CD05476306C6
:100F5000E50609476302E5040D476302E508B24070
:100F600041018280B75702209387070037870040EE
:100F7000232AF7080945EFF06FB0854509451307A7
:100F8000004091460546EFF0CFAB9145B2401305C6
:100F9000200841016FF0AFB2EFF04FAE8545094533
:100FA0001307004089460546EFF0AFA9B2408945D6
:100FB0001305200841016FF08FB00945EFF00FAC29
:100FC000854509451307004085460546EFF06FA7A4
:100FD000B24085451305200841016FF04FAE094529
:100FE000EFF0CFA985450945130700408D4605461A
:100FF000EFF02FA58D4559BF41110D4506C6EFF005
:10100000CFAA09CD05476303E5060947630EE5024C
:101010000D47630FE506B24041018280B7470220C9
:1010200093870700378700400D452320F70AEFF02C
:10103000EFA485450D451146EFF0CF9AB24091459A
:101040000D4541016FF0AFA70D45EFF02FA385458A
:101050000D451307004089460546EFF08F9E8945F0
:10106000B2401305300841016FF06FA50D45EFF058
:10107000EFA085450D451307004085460546EFF076
:101080004F9CB24085451305300841016FF02FA3F6
:10109000EFF0CF9E85450D45130700408D46054670
:1010A000EFF02F9A8D456DBF4111114506C6EFF047
:1010B000CF9F09CD85476303F5068947630EF50287
:1010C0008D47630FF506B24041018280B737022099
:1010D000938707003787004011452328F70AEFF070
:1010E000EF99854511451146EFF0CF8FB2409145FC
:1010F000114541016FF0AF9C1145EFF02F988545E8
:1011000011451307004089460546EFF08F93894546
:10111000B2401305400841016FF06F9A1145EFF09E
:10112000EF95854511451307004085460546EFF0CC
:101130004F91B24085451305400841016FF02F984B
:101140001145EFF0AF9385451145130700408D46DB
:101150000546EFF00F8F8D4565BF4111154506C659
:10116000EFF0AF9409CD85476303F5068947630E19
:10117000F5028D47630FF506B24041018280B72723
:101180000220938707003787004015452320F70C7E
:10119000EFF0CF8E854515451146EFF0AF84B24094
:1011A0009145154541016FF08F911545EFF00F8D79
:1011B000854515451307004089460546EFF06F88C1
:1011C0008945B2401305500841016FF04F8F154516
:1011D000EFF0CF8A85451545130700408546054643
:1011E000EFF02F86B24085451305500841016FF09E
:1011F0000F8D1545EFF08F88854515451307004085
:101200008D460546EFF0EF838D4565BF41111945C9
:1012100006C6EFF08F8909CD85476303F506894738
:10122000630EF5028D47630FF506B24041018280DF
:10123000B7170220938707003787004019452328F6
:10124000F70CEFF0AF83854519451146EFE09FF9A4
:10125000B2409145194541016FF06F861945EFF095
:10126000EF81854519451307004089460546EFE0A3
:101270005FFD8945B2401305600841016FF02F847E
:101280001945EFE0BFFF8545194513070040854626
:101290000546EFE01FFBB24085451305600841019C
:1012A0006FF0EF811945EFE07FFD85451945130784
:1012B00000408D460546EFE0DFF88D4565BF4111E2
:1012C0001D4506C6EFE07FFE09CD85476303F506A1
:1012D0008947630EF5028D47630FF506B240410161
:1012E0008280B707022093870700378700401D459B
:1012F0002320F70EEFE09FF885451D451146EFE0EE
:101300007FEEB24091451D4541016FE05FFB1D45F9
:10131000EFE0DFF685451D45130700408946054689
:10132000EFE03FF28945B2401305700841016FE0DC
:101330001FF91D45EFE09FF485451D45130700404B
:1013400085460546EFE0FFEFB2408545130570087E
:1013500041016FE0DFF61D45EFE05FF285451D4579
:10136000130700408D460546EFE0BFED8D4565BF94
:1013700001119306D1001306E1006C00054506CE6D
:10138000EFE0FFE38347C10089CF05476385E706A8
:1013900009476383E7040D47638EE706F240056162
:1013A00082800545EFE0BFE5B7670220938707001D
:1013B000378700402322F70891461307004005466F
:1013C00085450545EFE0FFE7914513051008EFE07F
:1013D0001FEFF240056182800545EFE05FE20946BC
:1013E00085450545EFE01FE089450545EFE03FED08
:1013F000F240056182800545EFE07FE005468545C6
:101400000545EFE03FDE85450545EFE05FEBF24047
:10141000056182800545EFE09FDE854505450D4667
:10142000EFE05FDC8D450545EFE07FE985BF011109
:101430009306D1001306E1006C00094506CEEFE0EB
:101440001FD88347C10089CF05476381E706094755
:10145000638FE7020D47638AE706F24005618280E9
:101460000945EFE0DFD9B757022093870700378798
:1014700000402328F708114685450945EFE09FD62F
:1014800091450945EFE0BFE3F240056182800945DF
:10149000EFE0FFD6094685450945EFE0BFD4894511
:1014A0000945EFE0DFE1F240056182800945EFE0A8
:1014B0001FD5054685450945EFE0DFD2854509453D
:1014C000EFE0FFDFF240056182800945EFE03FD3A6
:1014D000854509450D46EFE0FFD08D450945EFE014
:1014E0001FDEA5BF01119306D1001306E1006C00B9
:1014F0000D4506CEEFE0BFCC8347C10089CF05473D
:101500006385E70609476383E7040D47638EE706B3
:10151000F240056182800D45EFE07FCEB7470220A3
:1015200093870700378700402322F70A9146130765
:101530000040054685450D45EFE0BFD091451305B8
:101540003008EFE0DFD7F240056182800D45EFE023
:101550001FCB094685450D45EFE0DFC889450D45A0
:10156000EFE0FFD5F240056182800D45EFE03FC915
:10157000054685450D45EFE0FFC685450D45EFE085
:101580001FD4F240056182800D45EFE05FC78545BD
:101590000D450D46EFE01FC58D450D45EFE03FD2EF
:1015A00085BF01119306D1001306E1006C001145BF
:1015B00006CEEFE0DFC08347C10089CF05476385D2
:1015C000E70609476383E7040D47638EE706F240A9
:1015D000056182801145EFE09FC2B73702209387F3
:1015E000070037870040232AF70A91461307004077
:1015F000054685451145EFE0DFC4914513054008D8
:10160000EFE0FFCBF240056182801145EFE03FBF84
:10161000094685451145EFE0FFBC89451145EFE0DE
:101620001FCAF240056182801145EFE05FBD0546AB
:1016300085451145EFE01FBB85451145EFE03FC8EB
:10164000F240056182801145EFE07FBB8545114581
:101650000D46EFE03FB98D451145EFE05FC685BF10
:1016600001119306D1001306E1006C00154506CE6A
:10167000EFE0FFB48347C10089CF05476385E706E4
:1016800009476383E7040D47638EE706F24005616F
:1016900082801545EFE0BFB6B72702209387070089
:1016A000378700402322F70C914613070040054678
:1016B00085451545EFE0FFB8914513055008EFE06B
:1016C0001FC0F240056182801545EFE05FB3094617
:1016D00085451545EFE01FB189451545EFE03FBE53
:1016E000F240056182801545EFE07FB105468545F2
:1016F0001545EFE03FAF85451545EFE05FBCF24093
:10170000056182801545EFE09FAF854515450D4683
:10171000EFE05FAD8D451545EFE07FBA85BF011164
:101720009306D1001306E1006C00194506CEEFE0E8
:101730001FA98347C10089CF05476385E70609478D
:101740006383E7040D47638EE706F24005618280FC
:101750001945EFE0DFAAB717022093870700378704
:101760000040232AF70C91461307004005468545A3
:101770001945EFE01FAD914513056008EFE03FB458
:10178000F240056182801945EFE07FA70946854553
:101790001945EFE03FA589451945EFE05FB2F240FA
:1017A000056182801945EFE09FA5054685451945ED
:1017B000EFE05FA385451945EFE07FB0F24005619A
:1017C00082801945EFE0BFA3854519450D46EFE03E
:1017D0007FA18D451945EFE09FAE85BF01119306AE
:1017E000D1001306E1006C001D4506CEEFE03F9DE1
:1017F0008347C10089CF05476385E70609476383AF
:10180000E7040D47638EE706F240056182801D45BF
:10181000EFE0FF9EB707022093870700378700405D
:101820002322F70E914613070040054685451D45C6
:10183000EFE03FA1914513057008EFE05FA8F2408B
:10184000056182801D45EFE09F9B094685451D454A
:10185000EFE05F9989451D45EFE07FA6F240056105
:1018600082801D45EFE0BF99054685451D45EFE0A7
:101870007F9785451D45EFE09FA4F240056182807A
:101880001D45EFE0DF9785451D450D46EFE09F952F
:101890008D451D45EFE0BFA285BF8280B797004010
:1018A0001307C0FC2388E700A388E7002389E7002B
:1018B0003147A389E700130700042398E704930640
:1018C0000020239AD704239CD704239ED704239077
:1018D000D7062392D7062394D7063777022023967C
:1018E000D70613070700D8CB376702201307070076
:1018F000D8DB98CF375702201307070098DFD8CFDF
:101900003747022013070700D8DF98D33737022064
:1019100013070700B8C3D8D33727022013070700DF
:10192000F8C398D73717022013070700B8C7D8D7CE
:101930003707022013070700F8C798DB239807062C
:1019400023890706A38907060947239A0706238BDD
:10195000E706A38B0706239CD706238D0706A38DD6
:101960000706239E0706238FE706A38FE70623902B
:1019700007082381E708A381E70823920708238348
:10198000E708A383E708239407082385E708A385CE
:10199000E708239607082387E708A387E7088280DC
:1019A000B797004009E519472380E700828023802C
:1019B0000700130790032380E700130770022381B9
:1019C000E700E9BD011122CC2393018403C7C18341
:1019D0003775022006CE26CA4AC84EC693060500B1
:1019E000AD4503C6060063E1E5029377F70F0D6787
:1019F0008A0713078717BA979C4382879377F60164
:101A000081C70947638CE71AFD572393F18403D7F5
:101A10006184C167FD178144630BF70283D761843A
:101A200093940701C18085C703D761849307F003AE
:101A30009304000463F5E70262066186634B0612B5
:101A400083D76184858FC207C1832393F184F240D9
:101A500062444249B2492685D2440561828083D4DA
:101A60006184C204C180C9BF03D72600A380E1847A
:101A700079BF03D726008D46935787006380D71E12
:101A800063EBF60C05476380E71C0947E39EE7F626
:101A90008D6783D681849387871E23ACF182930759
:101AA0004007E3E4D7F683D78184C207C183B1BF7F
:101AB00083C7218405472393E1842380F60081BFF7
:101AC00037970040834787008D8BE1E3B7070020FD
:101AD000130700042398E70A03D72600938701849D
:101AE0002381E70005472382E70015B79377F601C6
:101AF0000947638DE710E39907F003C72600854780
:101B0000E317F7F09387018403C73700799BA3811C
:101B1000E700F5BD83D7460009472310050023934E
:101B2000E184930510086385B70C8545638BB70680
:101B30001308200863890715E39BE7ECB79700407B
:101B400083C7B7070D478D8BE393E7EC2380B6007F
:101B50002393B1846DBD3D47E398E7EA8D6783D653
:101B600081849387871A23ACF182D947E3EFD7E8C2
:101B70001DBF03A98183268613050500CA85269902
:101B8000EFE01F9623AC218365BD8347870009479B
:101B90008D8BE393E7F4B707002021472398E70AEA
:101BA00025BF37970040034777078D450D8BE3101E
:101BB000B7E62380F6002393F18491BD03D7260076
:101BC000E31407E403C7460093061008630ED71218
:101BD00063E4E60C85466300D712E317F7E2379714
:101BE00000408347B70793E73700A30DF70605B515
:101BF000B797004083C767070D478D8BE399E7E0F0
:101C000085472380F6002393F18411B503C746006E
:101C100093061008630FD70863ECE600854663015E
:101C2000D70AE313F7DEB7970040238D0706C5B345
:101C300093062008E31AD7DC37970040231C0706D9
:101C4000230DF706E9B38D6783D681849387C72573
:101C500023ACF182C947E3EAD7DAB1B51377F70FBE
:101C600089466304D70663EDE60025CF83D68184D9
:101C70009387418123ACF182A147E3E8D7D825B50A
:101C8000E307F7D851B3B797004083C7A7070D47BD
:101C90008D8BE39EE7D65DBD93072008E316F7D64C
:101CA000379700408347A70793E73700230DF706D0
:101CB000B9BB37970040231A0706230BF70681BBF1
:101CC000B7970040A38B070699B38D6783D68184AD
:101CD0009387071C23ACF18293076002E3E7D7D216
:101CE000D9B383D681849387C18123ACF182914794
:101CF000E3EDD7D04DBB379700408347770793E795
:101D00003700A30BF70621B33797004083476707D7
:101D100093E73700230BF706DDB9011122CC06CE7D
:101D200026CA4AC84EC6379400408347A40013F71A
:101D3000070239CBB77702209387070003C7070054
:101D400003C6170083D66700A38EE182238EC1826B
:101D50002394D1841377070601453DCFB797004000
:101D60002398A70621472389E706A389E706B797A3
:101D70000040130700022385E700F2406244D2448A
:101D80004249B2490561828093F7F70F13F72700A4
:101D90001DCB0347B4008347B40085463D8B918338
:101DA0008D8B6303D7128946630DD70821C7B79778
:101DB000004009472385E700F2406244D24442498B
:101DC000B2490561828013F717004DE3918BD5D797
:101DD00091472305F40055B7EFF0DFBEC167FD174B
:101DE000E31EF5F6231804068D472309F406A3091C
:101DF000F406B5BF6389D716DDFB8356C40083D7CD
:101E0000618463F6F61E8356C400C206C18283D77E
:101E10006184958FC207C1832393F18483D7618442
:101E2000638D071AB797004003C73707134787002A
:101E3000A389E70603C737071377C70FA389E70608
:101E4000BDB76383E70CA5F7B75702209387070058
:101E50005CCC8347B40793C78700A30DF406834780
:101E6000B40793F7C70FA30DF40691B7EFF01FA3C4
:101E70008547A30104002305F40003C7418393763B
:101E8000F70FE31CF7EEB7E700E03707100023A0D9
:101E9000E7103707200023A0E7103707020023A030
:101EA000E7103755FE03B72700401305056C238163
:101EB000D700EFE00FF66244F240D2444249B24903
:101EC000054505616FE05F8309476381E706E3909D
:101ED00007EE0357C4008347740793F7C70F93E7D0
:101EE0002700A30BF406B7670220938707005CD88E
:101EF00093170701C183231AF4068347640793F7F6
:101F0000C70F230BF40665B5B75702209387070068
:101F10001CDC8347A40793C78700230DF40683477F
:101F2000A40793F7C70F230DF40651B5231A04062F
:101F30008347640793C78700230BF406834764072E
:101F400093F7C70F93E72700230BF4068347740723
:101F500093C78700A30BF4068347740793F7C70F53
:101F6000A30BF406A9B583C7C183954613F7F70FF2
:101F70006384D70899476315F70803D761849307EB
:101F8000F00383A4818363E7E70803D46184377592
:101F90000220A68542044180228613050500EFE059
:101FA0002FD483D76184A29423AC9182818FC207FE
:101FB000C1832393F18429C4B797004023988706EF
:101FC00003C72707134787002389E70603C72707A7
:101FD0001377C70F2389E706D9BBB797004023982B
:101FE000070621472389E706A3890706C9B383D6D5
:101FF0006184C206C18221BD83C71184A301F4009C
:10200000B79700402147A389E7062398070623894D
:10201000070671BB37750220A68513060004130559
:102020000500EFE0EFCB83D761849384040423ACF5
:102030009182938707FCC207C1832393F184130421
:1020400000049DBFB7470F00938707243355F5025F
:10205000930700051375F50F630BF50A63EAA706EE
:10206000F947630DF50C9307C0036319F502B71721
:102070000040130770052380E700130780FA2380D0
:10208000E700130780042384E700130720F8238563
:10209000E700B7170040238007008280BD47E31A9E
:1020A000F5FEB7170040130770052380E7001307FC
:1020B00080FA2380E700130720042384E700130736
:1020C00000F82385E700B7170040238007008280CF
:1020D00093070006630BF50893078007E31BF5FAE7
:1020E000B7170040130770052380E700130780FA35
:1020F0002380E700130740042384E700130720F838
:102100002385E700B7170040238007008280B717B8
:102110000040130770052380E700130780FA23802F
:10212000E700130760042384E700130720F82385E2
:10213000E700B7170040238007008280B7170040F0
:10214000130770052380E700130780FA2380E70058
:10215000130700042384E700130720F82385E70012
:10216000B7170040238007008280B717004013078D
:1021700070052380E700130780FA2380E700130728
:1021800050042384E700130720F82385E700B717DE
:10219000004023800700828001A001A001A001A0CF
:1021A00001A001A001A001A001A001A001A001A027
:1021B00001A001A001A001A001A001A001A001A017
:1021C00001A001A001A001A001A097E1FF1F938140
:1021D000616E172100201301E1E2171500001305BD
:1021E000650F97E5FF1F9385E5E11386418263FA4A
:1021F000C5008322050023A0550011059105E3EADF
:10220000C5FE138541829385C1866377B50023207F
:1022100005001105E36DB5FE17E50120130585DE08
:1022200097E50120938505DE6377B500232005003F
:102230001105E36DB5FE9302800873A0023097E2AA
:10224000FFFF938262DC93E21200739052300145EB
:102250008145EFE04FAB01A0011126CA06CE22CC8A
:102260004AC84EC652C4AA8419E11C4502901C4DAE
:102270002E89A5E7B9239C4C8044B5C3971700006D
:10228000938747036310F406C0407C50858B81EB35
:102290008357C40093F7072099E3284C45258357BB
:1022A000C400A18B99C31C48C5E7A285268551228D
:1022B00045C1FD547C50858B81EB8357C40093F757
:1022C000072099E3284CA52DF24062444249B249C7
:1022D000224A2685D24405618280004545B726857D
:1022E000CD2169BF971700009387C7FA6314F400E4
:1022F000804461BF971700009387C7F7E317F4F88E
:10230000C04461B71CC4050963C907021C40138798
:10231000170018C02380B7001C4483450900FD172F
:10232000F5F11CC463D907022286A94526859120B0
:10233000FD57E300F5F8A944B5BF184C63C4E700A6
:10234000E39645FD228626852D20E31735FD95B7BA
:10235000FD59294AD1B71C401387170018C02947D7
:102360002380E700C9BFAA8517E5FF1F0325C5D451
:10237000E5B5011122CC26CA4AC806CE4EC6AA84AB
:102380002E89328401C51C4D91E325299717000041
:10239000938747F26318F402C0401C4C1CC4835757
:1023A000C400A18B99C31C4895EFA28526855120B6
:1023B00015C97D59F2406244D244B2494A85424926
:1023C00005618280971700009387C7EC6314F400BF
:1023D0008044E1B7971700009387C7E9E31FF4FA39
:1023E000C04465BF1C4808409379F90F1379F90F71
:1023F0001D8D5C486346F500A2852685B52455F9F8
:102400001C440505FD171CC41C401387170018C089
:10241000238037015C486389A7008357C400858BFC
:10242000D1DBA947E318F9F8A2852685352C59D1C7
:1024300049B7411122C426C24AC006C697E4FF1F0D
:1024400083A484C72A892E8489C49C4C99E3268559
:102450008D2E971700009387E7E56314F402C040C0
:102460008317C40013F787002DEB13F7070115EB53
:1024700025472320E90093E707042316F4007D5540
:1024800059A8971700009387E7E06314F40080448D
:10249000C1BF971700009387E7DDE313F4FCC04446
:1024A000C1B7918B8DC74C5889C993074404638485
:1024B000F5004A856123232A04028357C40023229E
:1024C000040093F7B7FD2316F4001C481CC0835783
:1024D000C40093E787002316F4001C4881EF83575C
:1024E000C4001307002093F707286385E700A2853F
:1024F0004A8565218317C40013F717001DC3584888
:10250000232404003307E04018CC1848014501E7B4
:1025100013F707082DF3B2402244924402494101C7
:10252000828013F72700814611E3544814C4F1BF99
:102530008397C500011122CC26CA06CE4AC84EC6D2
:1025400013F78700AA842E8469E7D8416345E00029
:10255000B8416358E008585449C7B18303A904003F
:10256000858B23A004000C50B9CB70488357C4005E
:10257000918B99C75C401D8E5C5899C33C401D8E61
:102580005C540C50814626858297FD57630DF504F7
:102590001C480567232204001CC08357C400F98F20
:1025A00091C368C84C5823A0240185CD93074404E7
:1025B0006384F50026855921232A04021DA00146C3
:1025C000854626850297FD572A86E311F5FA9C4039
:1025D000D1DF75476385E70059476395E70623A078
:1025E00024010145BDA098408317C40001CFF546E2
:1025F0006305D700D9466319D7041C482322040079
:102600001CC04DB71848B1832322040018C0858B25
:1026100041BF83A90501E38609FC03A905008D8B51
:1026200023A0350133093941014791E3D84918C442
:10263000E35920FB1C540C50CA864E86268582978F
:102640006340A0028317C40093E707042316F40035
:102650007D55F2406244D2444249B24905618280CC
:10266000AA993309A940E9B79C49411106C622C479
:1026700026C281EB8144B240224426859244410126
:102680008280AA842E8401C51C4D91E31D2A9717D0
:102690000000938727C2631DF402C0408317C40063
:1026A000F1DB7850058B11E793F7072099E3284C6D
:1026B00071242685A285AD3D7C50AA84858BC5FFFB
:1026C0008357C40093F70720DDF7284C8D2C65B79E
:1026D00097170000938707BC6314F40080447DBF04
:1026E00097170000938707B9E31AF4FAC0447DB73F
:1026F000411122C406C62A842316B5002317C5003B
:10270000232005002322050023240500232205069B
:1027100023280500232A0500232C05002146814596
:102720001305C505EFD03FDD97070000938747539A
:102730005CD0970700009387A7551CD4970700002B
:102740009387E7595CD4970700009387A75CB24052
:1027500000D01CD822444101828097050000938557
:10276000E5F0BDA2411126C2930780069384F5FFD0
:10277000B384F4024AC02E8922C406C69385440756
:102780007D262A8401CD2320050023222501310541
:1027900008C4138684068145EFD0FFD5B240228558
:1027A000224492440249410182801385418579A2E5
:1027B0001385418569A21385818549A21385818589
:1027C000BDAA411122C406C62A84F5371C4C89C70C
:1027D0002244B2404101DDB797070000938727F8F4
:1027E0001CD423240404232604042328040483A7DC
:1027F00001826394870085471CCC22853D2048C018
:102800002285252008C422850D2048C44840014661
:102810009145F93D08440546A545D93D484409463A
:10282000C945F93585471CCC65B7411126C24AC058
:1028300006C622C42A89953F83A401829C4C99E351
:1028400026854137938484048044DC40FD1763D699
:1028500007009C40BDC38440C5BF0317C40039EBCB
:10286000C17785075CC41305840523220406F12083
:10287000813721462320040023240400232204005E
:1028800023280400232A0400232C04008145130577
:10289000C405EFD05FC6232A0402232C040223249C
:1028A000040423260404B2402285224492440249AF
:1028B000410182801304840651BF91454A855D35EC
:1028C00088C02A8449F9ED35B1472320F900E1BFDA
:1028D000797122D44AD04ECE52CC5AC85EC606D6A2
:1028E00026D256CA2A892E8A130485048149054BAB
:1028F000FD5B0444832A4400FD1A63D00A020040B1
:102900006DF8B250225492540259624AD24A424B54
:10291000B24B4E85F2494561828083D7C400637B08
:10292000FB008397E40063877701A6854A85029AB6
:10293000B3E9A90093848406C1B782808280828033
:102940005971A2D42E848395E500A6D2CAD086D62A
:10295000B284368963D305028357C40093F707080E
:102960008DEB13070040B65026542320F90098C081
:10297000065996540145656182803000ED26E34D8D
:1029800005FC3247BD67F98F7977BA9793B717007F
:10299000C9BF814713070004F9B783D7C500797110
:1029A00022D406D626D24AD04ECE898B2E8491CF01
:1029B000930774041CC01CC885475CC8B2502254DD
:1029C00092540259F2494561828074003000AA8411
:1029D000853FA2492A892685CE85912A01ED831754
:1029E000C40013F7072079FBF19B93E72700231618
:1029F000F4007DBF97070000938767D69CD4835768
:102A0000C40008C008C893E707082316F400B247BB
:102A1000232A340189CF8315E40026858D2E01C930
:102A20008357C400F19B93E717002316F4008357E4
:102A3000C40033E527012316A40049B7D1CD83A7ED
:102A4000C5FF011122CC06CE1384C5FF63D3070056
:102A50003E942AC66926138701861C43324581EBC2
:102A60002322040000C36244F2400561ADAE637DE1
:102A7000F4001040B306C4006396D7009443DC43CF
:102A8000B29614C05CC0F9BF3E87DC4399C3E37DB6
:102A9000F4FE14433306D700631F86001040B2963D
:102AA00014C33306D700E390C7FC9043DC43B296CF
:102AB00014C35CC34DBF6375C400B1471CC165B787
:102AC0001040B306C4006396D7009443DC43B2962B
:102AD00014C05CC040C341BF828041114AC0138909
:102AE000C1858327090022C426C206C6AA842E8473
:102AF00089E7814589222320A900A2852685252AE8
:102B00007D59631A25017D54B240228522449244A6
:102B1000024941018280130435007198E30685FE65
:102B2000B305A4402685012AE31025FFE9BF011162
:102B300026CA93843500F1984AC806CE22CC4EC6E8
:102B4000A104B1472A8963F3F406B14463E2B406F1
:102B50004A8571249389018683A709003E8425E470
:102B6000A6854A859D3FFD572A846314F50C03A46E
:102B70000900A287D5E78329040081454A85A299E7
:102B80005D286392A90A1C408D049D8CF198A104D4
:102B9000B14763F3F400B144A6854A853D3FFD5734
:102BA0006303F5081C40A6971CC03DA8E3D004FAB7
:102BB000B1472320F9000145F2406244D244424922
:102BC000B249056182801440858E63C806042D4792
:102BD000637DD70204C0330794006396870223A065
:102BE000E9005C4014C35CC34A85F52A1305B400B0
:102BF0009307440061993307F540E30FF5FA3A94DF
:102C0000898F1CC055BFD8C3E9BF58406395870062
:102C100023A0E900D1BFD8C3C1BFA287404081B77C
:102C20003E84DC4381BFB1472320F9004A85652AF1
:102C300059B704C155BF411122C42A842E8523A24D
:102C4000018606C64524FD576316F50083A7418615
:102C500091C31CC0B240224441018280411122C470
:102C60002E848395E50006C65922634905007C48F9
:102C7000AA977CC8B2402244410182808357C40095
:102C80007D777D17F98F2316F400EDB783D7C50044
:102C9000011122CC26CA4AC84EC606CE93F70710A9
:102CA000AA842E843289B68991C78395E500894626
:102CB000014609228357C4007D777D17F98F83155C
:102CC000E4002316F4006244F240CE864A86B249FC
:102CD00042492685D24405613DA8411122C42E8473
:102CE0008395E50006C6F9207D578357C400631B12
:102CF000E5007D777D17F98F2316F400B24022445A
:102D0000410182800567D98F2316F40068C8FDB79A
:102D10008395E50035A0411122C42A842E85B28511
:102D2000368623A2018606C60924FD576316F500E0
:102D300083A7418691C31CC0B240224441018280D6
:102D4000411122C42A842E8523A2018606C6E920C9
:102D5000FD576316F50083A7418691C31CC0B2409E
:102D6000224441018280411122C42A842E85B285E9
:102D700023A2018606C6E920FD576316F50083A746
:102D8000418691C31CC0B24022444101828041115E
:102D900022C42A842E8523A2018606C6E928FD576F
:102DA0006316F50083A7418691C31CC0B24022443C
:102DB00041018280411122C42A842E85B285368643
:102DC00023A2018606C6F920FD576316F50083A7E6
:102DD000418691C31CC0B2402244410182801385C8
:102DE00001856FF0BFB5138501856FF05FB54111A7
:102DF00022C42A842E85B285368623A2018606C681
:102E00007528FD576316F50083A7418691C31CC042
:102E1000B240224441018280411106C622C4930877
:102E20009003730000002A84635705003304804038
:102E3000852A00C17D54B24022852244410182800E
:102E4000757126C306C7AE8422C5930800058A851E
:102E5000730000002A8463570500330480408922F0
:102E600000C17D5426858A85ED20BA4022852A44FA
:102E70009A444961828059712C0086D6D137FD571A
:102E80006308F500324535810589B6506561828059
:102E90000145E5BF411106C622C49308E003730053
:102EA00000002A846357050033048040D52800C100
:102EB0007D54B2402285224441018280411106C6E0
:102EC00022C49308F003730000002A8463570500AE
:102ED00033048040F12000C17D54B2402285224459
:102EE00041018280938681869842411106C6AA8755
:102EF0000DE39308600D0145730000007D576319D1
:102F0000E5007928B1471CC17D55B240410182805E
:102F100088C298429308600DBA973E8573000000FE
:102F2000E311F5FE88C23A85CDB7411106C622C429
:102F300093080004730000002A84635705003304DB
:102F40008040B92800C17D54B2402285224441010D
:102F500082809C41B8452310F5009C452311F50063
:102F60009C495CC1DC492314F5009C4D2315F500F8
:102F7000DC4D2316F5009C512317F5009C591CC904
:102F8000BC417CC59C5D3CC5FC4518CDB84D5CCDB5
:102F9000FC4D18D5B8555CD5FC5518DD5CDD82803C
:102FA00017D5FF1F0325451182800000496E697403
:102FB00020657272000000008E0000000001050014
:102FC00001008400000001000000280044006500AA
:102FD000760069006300650049006E0074006500BA
:102FE00072006600610063006500470055004900FB
:102FF000440000004E0000007B003100320033002E
:10300000340035003600370038002D003100320022
:10301000330034002D0031003200330034002D0025
:1030200031003200330034002D0031003200330013
:1030300034003500360037003800390041004200C6
:1030400043007D0000000000050F1600020710027B
:10305000060000000A1003000E00010AFF0700002E
:1030600012034D0053004600540031003000300080
:1030700001000000260357004300480020005500CF
:103080005300420033002E00300020004400450071
:103090005600490043004500200000000902C80016
:1030A0000101008064090400000EFFFFFF00070516
:1030B0008102000400063003000000070501020041
:1030C0000400063003000000070582020004000629
:1030D0003003000000070502020004000630030070
:1030E000000007058302000400063003000000070B
:1030F00005030200040006300300000007058402F7
:10310000000400063003000000070504020004006C
:1031100006300300000007058502000400063003A6
:10312000000000070505020004000630030000004F
:1031300007058602000400063003000000070506AC
:1031400002000400063003000000070587020004A7
:1031500000063003000000070507020004000630E7
:103160000300000012010003FF805509861A37553D
:103170000001010203010000141B0000EC1A000012
:10318000081A0000FC190000081A0000681A000064
:10319000721A0000081A0000B01A0000C01A0000DD
:1031A0000E1A00000E1A0000050F1600020710028A
:1031B000020000000A1003000E00010AFF070000D1
:1031C00026035700430048002000550053004200EA
:1031D00032002E0030002000440045005600490017
:1031E0004300450020000000090274000101008036
:1031F00064090400000EFFFFFF00070581020002C2
:103200000007050102000200070582020002000714
:103210000502020002000705830200020007050301
:1032200002000200070584020002000705040200F4
:1032300002000705850200020007050502000200E2
:1032400007058602000200070506020002000705C6
:1032500087020002000705070200020012010002B7
:1032600000000040861A37550011010200010000DD
:10327000000000000000000000000000000000004E
:10328000000000000000000000000000000000003E
:10329000000000000000000000000000000000002E
:1032A000000000000000000000000000000000001E
:1032B000000000000000000000000000000000000E
:1032C00000000000000000000000000000000000FE
:1032D0001603300031003200330034003500360070
:1032E0003700380039000000900E0000400F000049
:1032F000F80F0000A81000005A1100000C12000086
:10330000BE120000701300002E140000E414000030
:10331000A2150000601600001E170000DC17000058
:1033200000000000B0320000903200007032000057
:10333000000000000000000000000000000000008D
:10334000000000000000000000000000000000007D
:10335000000000000000000000000000000000006D
:10336000000000000000000000000000000000005D
:10337000000000000000000000000000000000004D
:1033800000020000500000200803570043004800DE
:103390000403090408035700430048000403090418
:0433A00050000020B9
:1033A4000000000000000000000000000000000019
:1033B4000000000000000000000000000000000009
:1033C40000000000000000000000000000000000F9
:1033D40000000000000000000000000000000000E9
:00000001FF
