:040000006F2030201D
:1000040000000000000000006F20501C6F20E07D05
:1000140011BFF9F70000000000000000000000001C
:1000240000000000000000000000000000000000CC
:100034006F20101A000000006F20B01900000000AB
:100044006F2050196F10800C6F2010196F20F0185A
:100054006F10604D6F10801C6F2090186F20701807
:100064006F2050186F20A00B6F2010186F20F0170E
:100074006F20D0176F20B0176F2090176F20A07BD0
:100084006F2050176F2030176F2010176F20F01655
:100094006F20D016000000000000000000000000E7
:1000A400000000000000000000000000000000004C
:0C00B40000000000000000000000000040
:1000C0002A8309CA83830500230073007D16050374
:1000D00085056DFA82802A8311C62300B3007D1640
:1000E000050365FE828015C22A8385466367B500D5
:1000F000FD561307F6FF3A93BA9583830500230054
:1001000073007D163693B6956DFA828073250030A4
:1001100082807325403082807325203482800A8556
:100120008280A94763E6B7029167938707798A05BA
:10013000BE959C418287B7170040B44F1347F5FF27
:10014000758FB8CFF84B498FF8CBB843498FB8C3F8
:100150008280B7170040B84F498FE5B7B717004006
:10016000F84B1345F5FF698FF8CBB84B698FB8CBC7
:10017000B843798DA8C38280B7170040F44F134766
:10018000F5FFF98EF4CFF44BF98EF4CBB44BC98E56
:10019000B4CBB443758FB8C38280B7170040F44F17
:1001A0001347F5FFF98EF4CFF44BC98EF4CBB44B63
:1001B000F98EB4CBB443758FB8C38280B7170040B3
:1001C000F44F1347F5FFC98E75BFB7170040F44FC2
:1001D0001347F5FFC98EC1BFB7170040F44F13474F
:1001E000F5FFC98EF4CFB44FF98EB4CFF44B758FB1
:1001F000F8CBB843498FB8C38280B7170040F44F9B
:100200001347F5FFC98EF4CFB44FC98EB4CFF44B6A
:10021000758FF8CBB843498FB8C38280B7170040B9
:10022000F44F1347F5FFF98EF4CFB44FF98E75BF35
:10023000B7170040F44F1347F5FFF98EE9B7A94708
:1002400063E6B70291679387C77B8A05BE959C4199
:100250008287B7170040B45F1347F5FF758FB8DF8B
:10026000F85B498FF8DBB853498FB8D38280B71752
:100270000040B85F498FE5B7B7170040F85B1345FA
:10028000F5FF698FF8DBB85B698FB8DBB853798D00
:10029000A8D38280B7170040F45F1347F5FFF98EAB
:1002A000F4DFF45BF98EF4DBB45BC98EB4DBB453DA
:1002B000758FB8D38280B7170040F45F1347F5FFFE
:1002C000F98EF4DFF45BC98EF4DBB45BF98EB4DB3A
:1002D000B453758FB8D38280B7170040F45F1347CB
:1002E000F5FFC98E75BFB7170040F45F1347F5FFE0
:1002F000C98EC1BFB7170040F45F1347F5FFC98E21
:10030000F4DFB45FF98EB4DFF45B758FF8DBB853BC
:10031000498FB8D38280B7170040F45F1347F5FFC9
:10032000C98EF4DFB45FC98EB4DFF45B758FF8DB80
:10033000B853498FB8D38280B7170040F45F134792
:10034000F5FFF98EF4DFB45FF98E75BFB717004083
:10035000F45F1347F5FFF98EE9B74111856706C6CB
:10036000AA972390070023A0A182ED2CB24023A4DA
:10037000A18223A6B18241018280130101DB2322E5
:10038000912283A481822320E12423261122232485
:10039000012523261125232481222320212303A4A0
:1003A000C182232E3121232C4121232A51212328AC
:1003B00061212322F124232CC122232ED122AA89B8
:1003C000232AB122452403AB01833389A440B3B46B
:1003D00024010D8C058C5A8681464A85A285EF2022
:1003E000606BB304AB0283AA81832A8A8146568656
:1003F000333B6503B30499403339990026853304B0
:10040000644133042441A285EF20C0682A893385E2
:10041000AA0203A6018483A64184B33A5903338513
:10042000A440B3B5A40033045441B305B440EF2055
:1004300060662A87737004309165CA8652869385F8
:10044000857E0808EF2030371C082A84541C4E860D
:100450009305F01F3E9536C6EF2070402A946351F5
:10046000800203A5018285671387E7FFB304F500C7
:1004700083D70400B3868700C207C1836357D702BE
:10048000736004308320C12203248122832441220B
:10049000032901228329C121032A8121832A4121A1
:1004A000032B01211301012582803E9522860C0831
:1004B000013983D70400A297C207C1832390F400B7
:1004C000C1B7B7170040130770052380E700130773
:1004D00080FA2380E70003C76700136717042383AC
:1004E000E700238007008280A1673307F500B70784
:1004F00008006376F710B306C700014563F2F610F3
:100500008D4763FFC70EB7170040238D07009D4638
:10051000238DD70013580701AD46238CD7001378DD
:10052000F80FB716004083C7A601E207E187E3CCC6
:1005300007FE13558700238C06011375F50FB716B8
:10054000004083C7A601E207E187E3CC07FE238CC6
:10055000A6001377F70FB716004083C7A601E2077E
:10056000E187E3CC07FE238CE60037170040834782
:10057000A701E207E187E3CC07FE8347870137172E
:1005800000408347A701E207E187E3CC07FE8347EA
:100590008701719A2E96B717004003C7A70162071B
:1005A0006187E34C07FE03C7870103C7A701620702
:1005B0006187E34C07FE03C7870103C7A7016207F2
:1005C0006187E34C07FE03C7870103C7A7016207E2
:1005D0006187E34C07FE03C78701D84B910523AE23
:1005E000E5FEE39CC5FA371700408347A701E20701
:1005F000E187E3CC07FE230D070005458280014516
:100600008280B7270040C8C709472380E7005147C9
:100610002380E7008280411106C61D2AB7F700E05B
:1006200023AA07007D57D8C798CBD8C398C713070C
:10063000501098C35D24B7470F0023A8A182938769
:1006400007241306803EB357F502B24023A201846B
:1006500023AE01823355C50223A0F18423ACA182CD
:1006600041018280B7F700E09847C8438C47E39D7B
:10067000E5FE8280B7F700E08C4703A84700984763
:10068000E39CE5FE83A7018483A6418433B7A702D8
:10069000B386A6023697B387A70209E7930620021E
:1006A00063EED7029388E7FDB3B7F8007D17338573
:1006B000E700B7F700E09847D0439447E31DD7FE23
:1006C0003306C840B336C8003387E540158F6366EC
:1006D000E500E312A7FEE3F0C8FE82809307200244
:1006E000D1B7B7F700E08C4703A847009847E39CD1
:1006F000E5FE83A7818383A6C18333B7A702B386B0
:10070000A6023697B387A70209E79306200263EE95
:10071000D7029388E7FDB3B7F8007D173385E7006C
:10072000B7F700E09847D0439447E31DD7FE330660
:10073000C840B336C8003387E540158F6366E500CF
:10074000E312A7FEE3F0C8FE828093072002D1B730
:10075000B7470F00938707243355F5029307000529
:100760001375F50F6306F50E63EAA706F9476308EC
:10077000F5109307C0036319F502B717004013077C
:1007800070052380E700130780FA2380E700130732
:1007900080042384E700130720F82385E700B717B8
:1007A0000040238007008280BD47E31AF5FEB7179B
:1007B0000040130770052380E700130780FA2380A9
:1007C000E700130720042384E700130700F82385BC
:1007D000E700B71700402380070082809307800757
:1007E0006306F50C9307000A6319F502B71700407A
:1007F000130770052380E700130780FA2380E700C2
:10080000130730042384E700130720F82385E7004B
:10081000B717004023800700828093070006E3108B
:10082000F5F8B7170040130770052380E70013079A
:1008300080FA2380E700130750042384E70013079E
:1008400020F82385E700B717004023800700828047
:10085000B7170040130770052380E700130780FADD
:100860002380E700130760042384E700130720F8C0
:100870002385E700B7170040238007008280B71761
:100880000040130770052380E700130780FA2380D8
:10089000E700130700042384E700130720F82385EB
:1008A000E700B7170040238007008280B717004099
:1008B000130770052380E700130780FA2380E70001
:1008C000130740042384E700130720F82385E7007B
:1008D000B7170040238007008280B716004083C707
:1008E000860003C7A600BD8B098B19CB8DCB83C7B0
:1008F000860037459C1C130505803345F502828030
:1009000091CB83C7860037C5C90113050538334528
:10091000F502828037851E0013050548828037C5A1
:10092000C90113050538828093972500BE958A0575
:100930009181B3D5A502A946B74700400547238753
:10094000E780371700409505B3D5D502930670FCB4
:10095000C205C1812396B7802381D7808D46A381AC
:10096000D78093060004A380D7807C4F93E7C7000D
:100970007CCF3C4393E787003CC3828037470040ED
:10098000834727801A0593F7F703C98F93F7F70F6B
:100990002301F780828019CDB747004003C7178035
:1009A0004D8FA380E78003C70780136787002380EC
:1009B000E7808280374700408347178093C5F5FF63
:1009C000ED8FA300F7808280411181451305F0E788
:1009D00006C622C4EFF0EFF481457D55EFF03F8667
:1009E000371400407C54370740009D45D98F7CD494
:1009F00037054000EFF0BF847C5437078000814505
:100A0000D98F7CD437058000EFF07F837C54370783
:100A10000001B240D98F7CD42244854537050001BE
:100A200041016FF0DF81B7170040E853B70780003E
:100A30007D8D8280371700407C57B7064000D58FE8
:100A40007CD78280371700403C57B7064000D58FCF
:100A50003CD782804111014506C622C4EF10600DCB
:100A6000B797004023A0070037071000B7E700E062
:100A700023A0E7103707200023A0E7103707020064
:100A800023A0E7103755FE03B72700400547238111
:100A9000E7001305056CB53637240220056681454D
:100AA00013050400EFF02FE3B7870040130700148D
:100AB00098C34947D8C337574C00130717B4B786B4
:100AC000004011A06DC39C4A7D17918BE5FF23AEBA
:100AD000060623AC060623A6060823A4060823AEB2
:100AE000060823AC060823A6060A23A4060A23AE9A
:100AF000060A23AC060A23A6060C23A4060C23AE82
:100B0000060C23AC060C23A6060E23A4060ECD4726
:100B1000DCD2B7070300938717029CD223A80606EE
:100B20009C42130404003717022093E727009CC25D
:100B3000B7C710009387D7C79CC68947DCC2930705
:100B40007070BCDAB737022093870700FCDAB7076A
:100B5000022023A086089387070023AAF60813071C
:100B6000070023A2E60823A8F60883A7860837060D
:100B70000404D18F23A4F60803A78609B707041439
:100B800093870740518F23ACE60803A7C608B240FD
:100B900022445D8F23A6E60803A7C609D98F23AE9A
:100BA000F6084101828001A0411122C406C626C276
:100BB000378400401C48918BF5FF5C405145B724B9
:100BC0000220F19B5CC05C4093E727005CC0930768
:100BD00080021CC0CD475CC02324040099471CD070
:100BE00009360566814513850400EFF0CFCE9307E3
:100BF00000141CC037574C00C9475CC0130717B41A
:100C0000B786004011A075C39C4A7D17918BE5FF04
:100C100023AE060623AC060623A6060823A4060870
:100C200023AE060823AC060823A6060A23A4060A58
:100C300023AE060A23AC060A23A6060C23A4060C40
:100C400023AE060C23AC060C23A6060E23A4060E28
:100C5000CD47DCD2B7070300938717029CD223A8A5
:100C600006069C42938404003717022093E727006E
:100C70009CC2B7C710009387D7C79CC68947DCC200
:100C800093077070BCDAB737022093870700FCDA4D
:100C9000B707022023A096089387070023AAF60827
:100CA0001307070023A2E60823A8F60883A78608EF
:100CB00037060404D18F23A4F60803A78609B707D3
:100CC000041493870740518F23ACE60803A7C60896
:100CD000B24022445D8F23A6E60803A7C6099244CA
:100CE000D98F23AEF6084101828001A037870040EA
:100CF0000DE51C4B918BF5FF5C43F19B5CC35C43A2
:100D000093E727005CC3930780021CC3CD475CC3F5
:100D10002324070099471CD38280411122C4372421
:100D20000220056681451305040006C6EFF0AFBA40
:100D3000B78700401307001498C34947D8C33757F3
:100D40004C00130717B4B786004011A06DC39C4A2E
:100D50007D17918BE5FF23AE060623AC060623A67E
:100D6000060823A4060823AE060823AC060823A61B
:100D7000060A23A4060A23AE060A23AC060A23A603
:100D8000060C23A4060C23AE060C23AC060C23A6EB
:100D9000060E23A4060ECD47DCD2B70703009387C7
:100DA00017029CD223A806069C421304040037179E
:100DB000022093E727009CC2B7C710009387D7C7CC
:100DC0009CC68947DCC293077070BCDAB737022033
:100DD00093870700FCDAB707022023A086089387D1
:100DE000070023AAF6081307070023A2E60823A892
:100DF000F60883A7860837060404D18F23A4F608D3
:100E000003A78609B707041493870740518F23ACC3
:100E1000E60803A7C608B24022445D8F23A6E60871
:100E200003A7C609D98F23AEF6084101828001A02D
:100E300001113735022022CC26CA9307050006CEC1
:100E40004AC84EC652C456C203C7170003D467002F
:100E5000238AE18423AC8184054683C507006301AE
:100E6000C702FD574164238AF1847D14F240228534
:100E70006244D2444249B249224A924A0561828080
:100E800083C7470025476362F7020D47E37BF7FC02
:100E9000ED1793F7F70F1147636FF70815678A0788
:100EA00013070780BA979C4382871307000CE39AC5
:100EB000E7FA93070020228963EC870A13070020D2
:100EC000B3092441A287636B87081394070141800B
:100ED00081A093078004228963F8870023ACF18402
:100EE0001304800413098004B70700209387870B3D
:100EF00023A8F184814929A89307E008228963E2A5
:100F00008706B70700209387070023A8F18481494B
:100F1000E205E18563C5050023AC318581BF03AAE5
:100F200001854A8613050500D2854A9AEFF04F994C
:100F300023A84185D5B793078002228963F88700EB
:100F400023ACF1841304800213098002B707002048
:100F50009387070923A8F18481495DBF9307002087
:100F6000ADB723ACF1841304E0081309E00851BFC6
:100F700013090020A1B701113735022022CC26CA5F
:100F80001307050006CE4AC84EC6035467008347C0
:100F90001700238AF18423AC81849306100363E94C
:100FA000F60095668A0793864681B6979C438287AA
:100FB00041647D14F24022856244FD57238AF18406
:100FC000D2444249B249056182808347270023AC5D
:100FD000F1840144F24022856244D2444249B2493C
:100FE00005618280834737008D4622896385D70853
:100FF00063E3F60405476382E70C0947E39AE7FADF
:101000009307600463F68700130460041309600407
:10101000B70900209389491A0DA809448547F24071
:101020002310F5002285624423AC01844249D24456
:10103000B249056182803D47E39CE7F6D94763E901
:101040008702B7090020938909104A86CE851305C7
:101050000500EFF0EF86F24022856244CA9923AC86
:10106000018423A83185D2444249B2490561828076
:1010700059445949F9B70347270089466309D704FA
:1010800063EDE60025CFC94763F487004944494929
:10109000B7090020938909194DBF6304F70493072A
:1010A000E00EE317F7F0C94763F487004944494964
:1010B000B70900209389891149BFC94763F48700A4
:1010C00049444949B709002093898923BDBFD147C5
:1010D00063F4870051445149B70900209389891668
:1010E000ADB79307C00363F687001304C003130969
:1010F000C003B70900209389C91281BF914763F4E7
:10110000870011441149B70900209389492C35BF44
:10111000411122C63727004085472303F70003C744
:10112000C1856303F70A03C7C1858D47631AF702B8
:101130008547238EF1843727004023010700B7E756
:1011400000E0B4434146B0C33706020023A0C718ED
:10115000B4C389472300F7003244410173002030B3
:10116000B7E700E0B4434147B8C33706100023A0F7
:10117000C718B4C3B443B8C33707200023A0E71887
:10118000B4C3378700401C4B918BF5FF5C4305458A
:10119000F19B5CC35C4393E727005CC39307800229
:1011A0001CC3CD475CC32324070099471CD3B797C2
:1011B000004023A0070037070002B7E700E023A0A4
:1011C000E710EF001017ADB7238E0184B7E700E0FA
:1011D000B4434147B8C33706100023A0C718B4C3AF
:1011E000B443B8C33707200023A0E718B4C3378738
:1011F00000401C4B918BF5FF5C433244F19B5CC378
:101200005C4393E727005CC3930780021CC3CD4770
:101210005CC32324070099471CD34101730020308D
:10122000378700405C474111856622C6F58F91CF14
:10123000930720141CC31C4B918BF5FF5C43F19B5F
:101240005CC35C435CC385675CC7378700405C4711
:10125000858BA9C785475CC703C6D185631F062058
:101260000D47238EE184B7E700E0B4434147B8C39C
:101270003706020023A0C718B4C30946B7260040AA
:101280002380C60023810600B443B8C33707000299
:1012900023A0E718B4C30145EF00B0093787004029
:1012A0005C47918B89CF91475CC71C4B918BF5FFB5
:1012B0005C43F19B5CC35C4393E727005CC33787C7
:1012C00000405C47A18B639B071C378700405C474D
:1012D000B7061000F58F81CF54C71C4B918BF5FFDB
:1012E0005C43F19B5CC35C4393E727005CC3378797
:1012F00000405C4793F7074095C7930700405CC7E1
:101300001C4B858B638507201C4B918BF5FF5C4341
:101310008566F19B5CC35C4393E727005CC35C4339
:10132000D58F5CC3B7860040D84685679387078012
:101330007D8F19CF0546A38EC184DCC63787004058
:101340001C4B918BF5FF5C43F19B5CC35C435CC31E
:10135000378700405C478966F58FB1C754C737842B
:1013600000401C48918BF5FF5C40F19B5CC05C40E9
:1013700093E727005CC0EFF03F831C5037870040A5
:10138000A207A1831CD01C501CD05C4093E707101F
:101390005CC01C4B898BF5FF5C43094593F7F7EF65
:1013A0005CC3EFF02FADB7870040D847A166758FBB
:1013B00021C7985337060080518F98D3D4C723AEE6
:1013C000070603A7C708C176FD1623A6E70803A7EB
:1013D000C70923AEE70803A7870823A4E70803A7E4
:1013E000870923ACE70898532207218398D39853A1
:1013F00098D3D843758FD8C3B7870040DC4793F79D
:10140000070485C3378700401C4B918BF5FF5C4375
:10141000F19B5CC35C4393E717005CC39307000434
:101420005CC7B7870040DC4793F7070285C337875F
:1014300000401C4B918BF5FF5C43F19B5CC35C430C
:1014400093E727005CC3930700025CC7B78700409F
:10145000DC47C18B99CF378700401C4B918BF5FF40
:101460005C43F19B5CC35C4393E727005CC3C147CB
:101470005CC732444101730020301306002830C796
:1014800037060200110670C723280704A38E0184C3
:10149000A386F1840D472386E184D9B3A1475CC7B5
:1014A0000547238EE184378700401C4B918BF5FF65
:1014B0005C43370610000545F19B5CC35443B7E716
:1014C00000E093E6260054C39306800214C3CD4681
:1014D00054C323240700994614D3B4434147B8C3E7
:1014E00023A0C718B4C30946B72600402380C6000E
:1014F00023810600B443B8C33707020023A0E718CE
:10150000B4C33707000223A0E71025257DBB2324A1
:1015100007001305007DEFF0EF95EFF0EFE80947C6
:10152000A386E18423860184F5BB011122CE378492
:1015300000405C5026CC4ACA4EC852C613F717006A
:1015400011EF13F7270055E7A18BF1EF7244E24446
:101550005249C249324A05617300203013D78700CF
:101560001D8BB183858B39CBF1CB89476306F72877
:1015700075171377F70F9147E3FAE7FC0327C408C1
:1015800041837D8B6312072CB727022093870700C6
:101590002320F4088327C4083707E003F98F2326A4
:1015A000F4088327C4083707041413070740D98FAA
:1015B0002326F408930770107CC049BFE9CF03C706
:1015C000418599476305F71623A401841307100486
:1015D000B7870040F8C3724437070104B8DF370704
:1015E0000114F8DFE2445249C249324A05617300EE
:1015F00020303C4C1307000A93F7071E6399E7005D
:101600009307002C3CC423260404232804047244BA
:10161000B78700400947D8D3E2445249C249324A09
:101620000561730020301C58E244A1475CD072442D
:101630005249C249324A056173002030894763002C
:10164000F71875171377F70F9147E3F1E7F00327C2
:10165000840841837D8B6301072C03268408B7052A
:10166000E003BA866D8E2324C4080326840863F33E
:10167000E700914693F7F60F13970701518F37064E
:101680000004B7860040518F9A0723A4E60893E729
:101690005700FCC265BD3C5C13971700634C070004
:1016A0008A0763C80704930710047CC0B7070104C6
:1016B0003CDC69BDB7370220232C040603C40700B5
:1016C00093770406B5C3EFF0AFF662046184C16797
:1016D0006345040C1387F7FF630FE51463160522B7
:1016E000B787004013071004F8C337070104B8DFB9
:1016F000B1BD03C7418595476311F7028D47238626
:10170000F184A386F184185083A781852207218361
:1017100018D01850E207D98F1CD0B787004023ACEF
:10172000070623AE07061DB5EFF0FF8479BF83A43B
:10173000818593070020268463F49700130400201A
:1017400003A90185373502202286CA8513050500C5
:10175000EFE01F9783A68184338784402299850612
:1017600023ACE18423A8218523A4D184E38E04E45F
:1017700037870040930710047CC3232C07067C5F47
:10178000B70520EC938505C0ED8FD606C18FD58FA8
:10179000B7060114D58F7CDF55BBFD17630DF50827
:1017A00021D193070020E3E3A7DAB78700401307AE
:1017B0001004F8C337070114598DE8DF41BB8327B4
:1017C0008409C183FD8BE9E3832784093707E0039C
:1017D000F98F232CF408B7070220938707002328EA
:1017E000F4088327840937070404D98F232CF408CD
:1017F000930790107CC099BB8327C409C183FD8BDC
:10180000F9E3B707022093870700232AF408832708
:10181000C4093707E003F98F232EF4088327C4098E
:101820003707041413070740D98F232EF4089307B2
:10183000B0107CC021BBB787004013071004F8C369
:1018400037070108F8DF19B30326C408B705E0031A
:10185000BA866D8E2326C4080326C40863F3E70006
:10186000914693F7F60F13970701B7060014518FAF
:101870009386064037860040558F9A072326E60850
:1018800093E777007CC2D9B103278409B706E00348
:101890001146758F232CE408832684093E876373E1
:1018A000F60011479377F70F13970701558F370607
:1018B0000004B7860040518F9A0723ACE60893E7EF
:1018C0009700FCC261B10327C409B706E0031146C3
:1018D000758F232EE4088326C4093E876373F600C0
:1018E00011479377F70F13970701558FB706001429
:1018F0009386064037860040558F9A07232EE608C8
:1019000093E7B7007CC299B13787004085077CC355
:10191000B70701043CDF1DB9B714022037260220A7
:1019200093850400130606000545EF0050728327D7
:1019300084083707E00393840400F98F2324F40814
:10194000232294088327840837070404D98F23248B
:10195000F408930750107CC0D5BE411106C6B78766
:1019600000402147D8C70145EFF04FB8B7E600E087
:10197000B842C147BCC23706100023A0C618B8C27F
:101980003726004009472300E60023010600B04245
:10199000BCC2B707020023A0F618B0C23706000287
:1019A000B797004023A0C61023800700930690033A
:1019B0002380D700930670022381D7009306C0FCD2
:1019C0002388D700A388D7002389D700B146A389ED
:1019D000D700930600042398D70493060020239A87
:1019E000D70437360220239CD70413060600D0CB39
:1019F0003726022013060600D0DB37160220130616
:101A0000060090CF370602201306060090DFD0CFE5
:101A10002398070623890706A3890706239AD70672
:101A2000238B0706A38B0706239CD706238D070667
:101A3000A38D0706239E0706238FE706A38FE706DD
:101A4000239007082381E708A381E708239207086A
:101A50002383E708A383E708239407082385E7087F
:101A6000A385E708239607082387E708A387E708E5
:101A7000B24041018280B79700401307C0FC238821
:101A8000E700A388E7002389E7003147A389E7003F
:101A9000130700042398E70413070020239AE704A0
:101AA000B7360220239CE70493860600D4CBB726E2
:101AB000022093860600D4DBB71602209386060028
:101AC00094CFB70602209386060094DFD4CF2398E4
:101AD000070623890706A3890706239AE706238BAF
:101AE0000706A38B0706239CE706238D0706A38D15
:101AF0000706239E07060947238FE706A38FE706FD
:101B0000239007082381E708A381E70823920708A9
:101B10002383E708A383E708239407082385E708BE
:101B2000A385E708239607082387E708A387E70824
:101B30008280B797004009E519472380E70082803B
:101B400023800700130790032380E7001307700228
:101B50002381E7001307C0FC2388E700A388E70080
:101B60002389E7003147A389E7001307000423987E
:101B7000E70413070020239AE704B7360220239CCA
:101B8000E70493860600D4CBB7260220938606008E
:101B9000D4DBB71602209386060094CFB706022046
:101BA0009386060094DFD4CF23980706238907067F
:101BB000A3890706239AE706238B0706A38B07064C
:101BC000239CE706238D0706A38D07060947239E5E
:101BD0000706238FE706A38FE706239007082381D4
:101BE000E708A381E708239207082383E708A38374
:101BF000E708239407082385E708A385E7082396C9
:101C000007082387E708A387E7088280011126CA0F
:101C1000239D018683C701873735022006CE22CC5B
:101C20004AC84EC61307050005468345070063846E
:101C3000C70893F6F70F89476385F606FD57239D7E
:101C4000F18603D7A187C167FD170144630FF7022F
:101C500083D7A18713940701418085CB03D7A18740
:101C60009307F0031304000463E6E70003D4A1879D
:101C700042044180E205E18563CD050C83D7A1874D
:101C8000818FC207C183239DF186F2402285624481
:101C9000D2444249B249056182801307000CE382B5
:101CA000E7FA41647D14F24022856244D2444249FD
:101CB000B24905618280834747002547E36FF7FCFF
:101CC0000D47E370F7FEED1793F7F70F1147636FBA
:101CD000F70415678A071307C78DBA979C43828755
:101CE00083D6C1879307E00863E6D70083D7C1870F
:101CF000C207C183239DF186B707002093870700A1
:101D000023A6F1863DBF83D6C1879307800463E68F
:101D1000D70083D7C187C207C183239DF186B70748
:101D200000209387870B23A6F18621BF83D6C18726
:101D30009307800263E6D70083D7C187C207C183B8
:101D4000239DF186B70700209387070923A6F18614
:101D5000CDBD03A9C186228613050500CA85229937
:101D6000EFE00FB623A6218711BF011122CC239DDE
:101D7000018603C701873735022006CE26CA4AC826
:101D80004EC693060500AD4503C6060063E4E502B2
:101D90009377F70F15678A071307078FBA979C4346
:101DA00082879377F6016393071A83D72600054746
:101DB0006388E71EFD57239DF18603D7A187C1677E
:101DC000FD178144630BF70283D7A1879394070122
:101DD000C18085C703D7A1879307F003930400044C
:101DE00063F5E70262066186634A061283D7A1871C
:101DF000858FC207C183239DF186F2406244424928
:101E0000B2492685D2440561828083D4A187C20469
:101E1000C180C9BF03C72600A38AE18679BF83C7F3
:101E200036000D476384E71E636BF70C0547638339
:101E3000E7200947E390E7F8B707002083D6C1877A
:101E40009387C71E23A6F1869307B004E3E5D7F670
:101E500083D7C187C207C183B9BF83C761870547DD
:101E6000239DE1862380F60089BF37970040834792
:101E700087008D8BE1E3B707002013070004239050
:101E8000E72C03C72600938741872381E700054796
:101E90002382E7001DB79377F6010947638DE710AA
:101EA00091FB03C726008547E319F7F09387418725
:101EB00003C73700799BA381E70001B783D74600AA
:101EC000094723100500239DE186930510086386CA
:101ED000B71085456389B70A13082008638A071974
:101EE000E39DE7ECB797004083C7B7070D478D8B9D
:101EF000E395E7EC2380B600239DB1867DBD3D4789
:101F0000E39AE7EAB707002083D6C18793870710D3
:101F100023A6F186D947E3E0D7EA1DBF03A9C1860E
:101F2000268613050500CA852699EFE06F9923A63A
:101F300021876DBD8347870009478D8BE393E7F4C5
:101F4000B707002021472390E72C25BF0947E393DB
:101F5000E7E603D72600E31F07E403C7460093061E
:101F60001008630ED71863EEE61085466302D71A91
:101F7000E312F7E4379700408347B70793E737004A
:101F8000A30DF7061DBD37970040034777078D4522
:101F90000D8BE314B7E22380F600239DF18631BD5B
:101FA000370700200347371F13770702E30407E0D2
:101FB000A38BF18619B503C7260093061008630F9B
:101FC000D70C63EAE60285466301D70EE314F7DE19
:101FD000B7970040238D0706CDB3B797004083C75E
:101FE00067070D478D8BE39AE7DC85472380F60072
:101FF000239DF186D9B393062008E31DD7DA3797DE
:102000000040231C0706230DF70645BB03C7260027
:1020100089466301D70A63EBE60271C7B707002060
:1020200083D6C1879387071923A6F186C947E3E4BE
:10203000D7D839BDB707002083D6C1879387C72477
:1020400023A6F186C947E3E8D7D619B56300F70898
:102050009307E00EE310F7D6B707002083D6C187B9
:102060009387871123A6F186C947E3E6D7D4CDB37A
:10207000B797004083C7A7070D478D8BE39FE7D233
:1020800095BD93072008E317F7D2379700408347A1
:10209000A70793E73700230DF70605B337970040EE
:1020A000231A0706230BF70609BBB7970040A38B3B
:1020B000070621B3B707002083D6C1879387C717C8
:1020C00023A6F186D147E3E8D7CE59B3B70700205E
:1020D00083D6C1879387C71223A6F1869307C003CF
:1020E000E3EBD7CCB5B3B707002083D6C18793877E
:1020F000472C23A6F1869147E3EFD7CA91BB3797C8
:1021000000408347670793E73700230BF70675B155
:10211000379700408347770793E73700A30BF7060D
:1021200069B9411122C626C44AC24EC03794004044
:102130008347A40013F7070239CFB73702209387EC
:10214000070003C7070003C6170083D66700A388EC
:10215000E1862388C186239ED1861377070641E74F
:102160002931C167FD176305F508B797004023982B
:10217000A70621472389E706A389E706B79700400A
:10218000130700022385E7003244A2441249824922
:1021900041017300203093F7F70F13F727001DCB91
:1021A0000347B4008347B40085463D8B91838D8BF4
:1021B0006304D7128946630ED70829C7B797004032
:1021C00009472385E7003244A2441249824941016C
:1021D0007300203013F7170055E3918BD5D7914743
:1021E0002305F40055B71D34C167FD17E31FF5F64D
:1021F000B7970040239807060D472389E706A38970
:10220000E706ADBF6385D71AD5FB8356C40083D7D5
:10221000A18763F2F6228356C400C206C18283D727
:10222000A187958FC207C183239DF18683D7A1879C
:102230006389071EB797004003C737071347870016
:10224000A389E70603C737071377C70FA389E706F4
:10225000B5B7638EE70EBDF3B7070220938707007B
:102260005CCC8347B40793C78700A30DF40683476C
:10227000B40793F7C70FA30DF40689B70947A386E0
:10228000E18423860184EFF00FFF8547A30104005A
:102290002305F40003C7C1859376F70FE316F7EE25
:1022A000B7E700E03707100023A0E710370720004A
:1022B00023A0E7103707020023A0E7103755FE03DD
:1022C000B72700401305056C2381D700EFE06FB3FB
:1022D0000545EFE0BFA14DBD0947638CE708E39FCB
:1022E00007EC83A7018689EFB727022093870700B1
:1022F00023A4F186B71702209387070023A2F18653
:1023000003A70186994763EBE70083A7418693877C
:10231000072023A2F186379700401CCF83A70186B0
:102320002147850723A0F18683A70186638DE712E5
:10233000B797004003C7770713478700A38BE706CB
:1023400003C777071377C70FA38BE70685BDB707CA
:102350000220938707001CDC8347A40793C78700EC
:10236000230DF4068347A40793F7C70F230DF40644
:10237000B1B583A581863725022093040500938596
:102380000520130600201305050023A4B186EFD015
:102390003FD344D88347640793C78700230BF406D1
:1023A0008347640793F7C70F230BF40601BD03C7E8
:1023B000018715469376F70F6304C7089947639A18
:1023C000F60803D7A1879307F00383A4C18663E0CF
:1023D000E70C03D4A18737350220A685420441804B
:1023E000228613050500EFD0BFCD83D7A187A29425
:1023F00023A69186818FC207C183239DF18631C8B0
:10240000B79700402398870603C72707134787001D
:102410002389E70603C727071377C70F2389E70632
:1024200071BBB79700402398070621472389E70629
:10243000A389070661B383D6A187C206C182C5B34B
:1024400003C751872386F1848D46A386D184A301D7
:10245000E400B79700402147A389E70623980706C1
:1024600023890706A1BBB7140220372602209385D3
:102470000400130606000145D92E9384040023A20C
:10248000918623A00186B797004084CF55B5373594
:102490000220A6851306000413050500EFD05FC2D5
:1024A00083D7A1879384040423A69186938707FC8E
:1024B000C207C183239DF1861304000491B78347AB
:1024C0000500370700201307C7242304F7008346BD
:1024D0001500B707002093878723A304D7008346FE
:1024E00005002384D70083461500A384D7008346C4
:1024F00025002305D70083463500A305D7000347F1
:1025000025002385E70003473500A385E700828087
:1025100003470500956793870792935647003D8BC5
:10252000BE963E9703C60600834607003707002085
:102530001307C712230EC700230FD70083461500C9
:1025400013D64600BD8A3E96BE960346060083C655
:1025500006002300C7022301D7028346250013D6B5
:102560004600BD8A3E96BE960346060083C6060018
:102570002302C7022303D7028346350013D6460041
:10258000BD8A3E96BE960346060083C60600230417
:10259000C7022305D7028346450013D64600BD8AED
:1025A0003E96BE960346060083C606002306C70273
:1025B0002307D7028346550013D64600BD8A3E96B0
:1025C000BE960346060083C606002308C7022309F9
:1025D000D7028346650013D646003E9603460600A2
:1025E000BD8ABE96230AC70283C60600230BD70204
:1025F0008346750013D64600BD8A3E96B69783C7BC
:10260000070083460600230DF702230CD7028280C1
:10261000397106DE22DC26DA4AD84ED652D456D29A
:10262000371A27075AD05ECE62CC66CA6AC8EFE076
:10263000AFB913050AE0EFD01FFE370500201305E0
:102640004536EFD09FD1156513050593EFD0FFD226
:102650003719004083451900156513058593EFD0A0
:10266000DFD137850700138401889385018823A073
:1026700001882146111523220400EFD0FFE6034311
:1026800074008348640003485400034734008346C1
:102690002400834744000346140083C50188156560
:1026A0001AC01305C594EFD05FCD1565930580075B
:1026B0001305C598EFD07FCC1565056685651305B4
:1026C000459CEFD09FCBB797004023A0070037E48D
:1026D00000E0B70710002320F410B70720002320E4
:1026E000F410B70702002320F4108549B7270040F3
:1026F0003755FE03238137011305056CEFD07FF0BA
:1027000013850188313513858180553B0545EFE000
:10271000EFDD832789048545114593E7870023244E
:10272000F904EFD01FA095452145EFD09F9F71651B
:1027300093050AE013050520EFE00F9F0145EFE048
:10274000EFA395450545238F3187EFE0CFA4B70769
:1027500000802320F410FD5A156D956C8D44094BB3
:10276000130C401F930BA00F93092003EFE0AFABB6
:1027700015E123A63181EFE0EFAB03A5C180EFD0D7
:102780005FF6EFE02FAC03A5C180EFD09FF5EFE03F
:102790008FA965D183C7D1846399970283C7C18408
:1027A00013F7F70F638667036311970283C7C1842A
:1027B000638A570183CAC18413850CB693FAFA0F52
:1027C000EFD0BFBB23A671817DB7EFE0AFA679BF85
:1027D00083C7C184638A570183CAC18413058DB43A
:1027E00093FAFA0FEFD07FB923A6818169B71565F7
:1027F0001305459FEF00A074EFD07F92AA85156561
:10280000130505A0FD23EFD0DF90AA8515651305FC
:10281000C5A0C523EFD09F8FAA8515651305C5A157
:10282000C92BEFD07F8FAA851565130505A3D1238A
:102830000545EFD01FEB7300203041113EC6B7476E
:10284000004083C74780B2474101730020309C415C
:1028500041113747535522C406C626C24AC09306C3
:1028600027232A846386D710B28463F2F606930680
:1028700037236383D712130737256391E70E054982
:102880006302250B1565130585AAEFD01FAF379797
:1028900000408347870083468700371400208D8BD4
:1028A0008D8A638E2711156685651306C6AFFD15E3
:1028B00013058436492D0566930584362685EFD0A9
:1028C0003F80B240224492440249410182803757FE
:1028D0004F42130747F5638CE70637474F4C130702
:1028E0002775639DE7061565130505A4EFD0FFA8BE
:1028F000B70500208567138445363E9403560400CF
:10290000268593854536EFD0AFFB83570400A69705
:1029100023800700B240231004002244924402495D
:102920004101828015651305C5A4EFD01FA5B787A7
:102930000040944B984FDC4F371400201566856596
:102940001306C6A5FD1513058436F52BADB7224435
:10295000B2409244024941016FD0BFB62244B24016
:10296000924402491565130545B741016FD0FFA098
:102970001565130545B4EFD05FA08547E313F4F464
:102980001565130505B5EFD05F9F2244B240924410
:10299000024941016FE07FFC15651305C5B5EFD015
:1029A000DF9DE31004F21565130585B6EFD0FF9C9B
:1029B0002244B2409244024941016FE0AF8915665A
:1029C0008565130686ABFD1513058436AD2BE5B57D
:1029D00001A001A001A001A001A001A001A001A0EF
:1029E00001A001A001A001A001A001A001A001A0DF
:1029F00001A001A001A001A001A001A001A001A0CF
:102A000001A097E1FF1F9381E10B17110020130133
:102A1000615F172500001305253697D5FF1F9385A5
:102A2000655E1386C18163FAC5008322050023A079
:102A3000550011059105E3EAC5FE1385018297054E
:102A400000209385A5926377B5002320050011052A
:102A5000E36DB5FE17D501201305C55A9705022071
:102A60009385457A6377B500232005001105E36D52
:102A7000B5FE9302800873A0023097D2FFFF9382C5
:102A8000A25893E212007390523001458145EFF055
:102A90003FB801A0AA882E8332872A88AE87639622
:102AA0000620972500009385E50D6371C30CC16670
:102AB0006377D60A9336061093C616008E063355F2
:102AC000D600AA9583C5050013050002AE96B3058E
:102AD000D540630BD500B317B300B3D6D800331776
:102AE000B600D58F3398B8009355070133D3B7029A
:102AF000131607014182B3F7B7021A85B3086602BD
:102B00009396070193570801D58F63FC1701BA9775
:102B10001305F3FF63E7E70063F517011305E3FF10
:102B2000BA97B3871741B3D8B702420813580801C0
:102B3000B3F7B702B3061603C2073368F800C687B7
:102B4000637BD8003A989387F8FF6366E800637464
:102B5000D8009387E8FF42055D8D81458280370567
:102B60000001C146E36DA6F4E14691BF814609CA62
:102B7000C167637FF6089336061093C616008E066B
:102B8000B357D600BE9583C70500B69793060002DB
:102B9000B385F6406395F608B307C340854593585F
:102BA000070133DE1703131607014182935608010C
:102BB000B3F7170372853303C603C207D58F63FCCF
:102BC0006700BA971305FEFF63E7E70063F5670048
:102BD0001305EEFFBA97B387674033D31703420854
:102BE00013580801B3F71703B3066602C207336828
:102BF000F8009A87637BD8003A989307F3FF6366DF
:102C0000E8006374D8009307E3FF42055D8D82807E
:102C1000B7070001C146E365F6F6E14695B73317FD
:102C2000B600B356F300135507013313B300B3D7FF
:102C3000F800B3E7670033D3A602131607014182F9
:102C40003398B800B3F6A602B3086602939506015E
:102C500093D60701CD8E9A8563FC1601BA9693052B
:102C6000F3FF63E7E60063F516019305E3FFBA9609
:102C7000B3861641B3D8A602C207C183B3F6A60233
:102C800033061603C206D58FC68663FCC700BA9703
:102C90009386F8FF63E7E70063F5C7009386E8FFD4
:102CA000BA97C205918FD58DDDBD63E1D514C1679B
:102CB00063FFF60213B70610134717000E07B3D5CC
:102CC000E600972700009387E7EBAE9783C70700DE
:102CD000BA9713070002B305F7406311F7020545E1
:102CE000E3EE66E633B5C800134515008280B707EA
:102CF00000014147E3E5F6FC6147D1B73357F600E1
:102D0000B396B600D98E3357F3003313B300B3D75D
:102D1000F800B3E7670013D30601B35E67021398A8
:102D20000601135808013316B60033776702330ED5
:102D3000D8031315070113D70701498F7685637CE4
:102D4000C70136971385FEFF6367D7006375C70118
:102D50001385EEFF36973307C741335E6702C2071C
:102D6000C183337767023308C8034207D98F72875C
:102D700063FC0701B6971307FEFF63E7D70063F50F
:102D800007011307EEFFB6974205416E598D930672
:102D9000FEFF3377D500B3870741F18E1358050145
:102DA00041823303D702B306D8023307C702330880
:102DB000C8023306D7001357030132976373D70055
:102DC000729893560701C29663E0D702E397D7D86B
:102DD000C167FD177D8F42073373F300B398B800C6
:102DE0001A978145E3FCE8D67D1585BB81450145F1
:102DF00082805D7122D406D62A842EDA32DC36DE59
:102E0000BAC0BEC2C2C4C6C603A5018111C51C4D4D
:102E100081E72AC6552532450C455418228636CE00
:102E2000EF10A027B250225461618280011126CA9E
:102E300006CE22CC4AC84EC652C4AA8419E11C450B
:102E400002901C4D2E89B5E7852D9C4C8044A5C76A
:102E500097270000938707E76312F406C0407C5071
:102E6000858B89EB8357C40093F7072081E7284CB3
:102E7000EF00207C8357C400A18B99C31C48CDE789
:102E8000A285268565244DC1FD547C50858B89EB38
:102E90008357C40093F7072081E7284CEF0080791F
:102EA000F24062444249B249224A2685D244056131
:102EB0008280004571BF2685012559BF97270000F4
:102EC000938747DE6314F400804451BF97270000C6
:102ED000938747DBE315F4F8C04451B71CC40509D8
:102EE00063C907021C401387170018C02380B7006E
:102EF0001C4483450900FD17F5F11CC463D9070282
:102F00002286A94526859D22FD57E30FF5F6A944A3
:102F1000ADBF184C63C4E700E39645FD22862685C5
:102F2000B122E31735FD8DB7FD59294AD1B71C40B1
:102F30001387170018C029472380E700C9BFAA8557
:102F400003A50181E5B53571A6DA86DEA2DCCAD813
:102F500036C73AC93ECB42CD46CF83A4018163DC5C
:102F600005009307B0089CC07D55F6506654D654B2
:102F700046590D61828093078020231AF1002AC4EC
:102F80002ACC2E84814799C19387F5FF7D5974011E
:102F90002C0026853EC83ECE231B210136C2EF0001
:102FA000D028635525019307B0089CC05DDCA2477B
:102FB000238007005DBF35713ECBB707008093C704
:102FC000F7FF3ECE3EC8C17732C536C72AC42ACCE9
:102FD0009387872034012E8603A501812C0086DE8D
:102FE0003ECA3AC942CD46CF36C2EF001024A247AE
:102FF00023800700F6500D6182801971A2DCA6DAE9
:1030000086DECAD8AA843284635C06009307B008BF
:103010001CC17D55F6506654D654465909618280CC
:1030200093078020231AF1002EC42ECC36868147C8
:10303000BA8619C09307F4FF7D592C0026853EC837
:103040003ECE231B2101EF00501E6355250193073F
:10305000B0089CC061D0A2472380070065BF3687B7
:10306000B2862E86AA8503A5018141BF011122CC1B
:1030700026CA4AC806CE4EC6AA842E89328401C505
:103080001C4D91E31529972700009387A7C3631868
:10309000F402C0401C4C1CC48357C400A18B99C3CC
:1030A0001C4895EFA2852685512015C97D59F2400F
:1030B0006244D244B2494A854249056182809727D9
:1030C0000000938727BE6314F4008044E1B797277C
:1030D0000000938727BBE31FF4FAC04465BF1C4878
:1030E00008409379F90F1379F90F1D8D5C486346F9
:1030F000F500A2852685A52455F91C440505FD1774
:103100001CC41C401387170018C0238037015C487B
:103110006389A7008357C400858BD1DBA947E318D7
:10312000F9F8A2852685252C59D149B7411122C429
:1031300026C24AC006C683A401812A892E8489C476
:103140009C4C99E326858D2E97270000938787B79F
:103150006314F402C0408317C40013F787002DEBFB
:1031600013F7070115EB25472320E90093E7070430
:103170002316F4007D5559A897270000938787B23E
:103180006314F4008044C1BF97270000938787AF82
:10319000E313F4FCC044C1B7918B8DC74C5889C967
:1031A000930744046384F5004A857123232A0402AB
:1031B0008357C4002322040093F7B7FD2316F400BD
:1031C0001C481CC08357C40093E787002316F400F3
:1031D0001C4881EF8357C4001307002093F707288A
:1031E0006385E700A2854A856D218317C40013F724
:1031F00017001DC35848232404003307E04018CCAF
:103200001848014501E713F707082DF3B24022449F
:10321000924402494101828013F72700814611E35D
:10322000544814C4F1BF8397C500011122CC26CAAB
:1032300006CE4AC84EC613F78700AA842E8469E7D3
:10324000D8416345E000B8416358E008585449C785
:10325000B18303A90400858B23A004000C50B9CBD3
:1032600070488357C400918B99C75C401D8E5C5891
:1032700099C33C401D8E5C540C5081462685829734
:10328000FD57630DF5041C480567232204001CC08C
:103290008357C400F98F91C368C84C5823A02401F8
:1032A00085CD930744046384F50026856921232A8C
:1032B00004021DA00146854626850297FD572A86F1
:1032C000E311F5FA9C40D1DF75476385E700594764
:1032D0006395E70623A024010145BDA0984083170C
:1032E000C40001CFF5466305D700D9466319D7045A
:1032F0001C48232204001CC04DB71848B183232268
:10330000040018C0858B41BF83A90501E38609FC31
:1033100003A905008D8B23A03501330939410147ED
:1033200091E3D84918C4E35920FB1C540C50CA86B9
:103330004E86268582976340A0028317C40093E7D8
:1033400007042316F4007D55F2406244D2444249FA
:10335000B24905618280AA993309A940E9B79C491D
:10336000411106C622C426C281EB8144B2402244E8
:103370002685924441018280AA842E8401C51C4D79
:1033800091E31D2A972700009387C793631DF402DA
:10339000C0408317C400F1DB7850058B11E793F729
:1033A000072099E3284C71242685A285AD3D7C50E9
:1033B000AA84858BC5FF8357C40093F70720DDF7E8
:1033C000284C8D2C65B7972700009387A78D631431
:1033D000F40080447DBF972700009387A78AE31AF3
:1033E000F4FAC0447DB7411122C406C62A842316CC
:1033F000B5002317C5002320050023220500232440
:1034000005002322050623280500232A0500232C76
:103410000500214681451305C505EFC0DFCB971791
:1034200000009387C7F75CD097170000938727FAAF
:103430001CD497170000938767FE5CD49717000091
:1034400093872701B24000D01CD8224441018280DA
:10345000970500009385E5F0BDA2411126C29307B0
:1034600080069384F5FFB384F4024AC02E8922C4F7
:1034700006C693854407752E2A8401CD23200500B6
:1034800023222501310508C4138684068145EFC037
:103490009FC4B24022852244924402494101828065
:1034A0001385C18879A21385C18869A21385018912
:1034B00049A213850189BDAA411122C406C62A84E6
:1034C000F5371C4C89C72244B2404101DDB797074C
:1034D0000000938727F81CD4232404042326040423
:1034E0002328040483A781816394870085471CCC2B
:1034F00022853D2048C02285252008C422850D2034
:1035000048C4484001469145F93D08440546A54553
:10351000D93D48440946C945F93585471CCC65B7AE
:10352000411126C24AC006C622C42A89953F83A4F7
:1035300081819C4C99E3268541379384840480449F
:10354000DC40FD1763D607009C40BDC38440C5BF67
:103550000317C40039EBC17785075CC413058405E4
:1035600023220406F120813721462320040023244E
:1035700004002322040023280400232A0400232C0F
:10358000040081451305C405EFC0FFB4232A0402DB
:10359000232C04022324040423260404B24022859D
:1035A000224492440249410182801304840651BF9F
:1035B00091454A855D3588C02A8449F9ED35B14782
:1035C0002320F900E1BF797122D44AD04ECE52CCEB
:1035D0005AC85EC606D626D256CA2A892E8A13042F
:1035E00085048149054BFD5B0444832A4400FD1A90
:1035F00063D00A0200406DF8B2502254925402592E
:10360000624AD24A424BB24B4E85F24945618280B2
:1036100083D7C400637BFB008397E4006387770153
:10362000A6854A85029AB3E9A90093848406C1B7A6
:103630008280828082805971A2D42E848395E50095
:10364000A6D2CAD086D6B284368963D30502835700
:10365000C40093F7070895EB13070040B6502654B3
:103660002320F90098C0065996540145656182806F
:103670003000EF003063E34C05FC3247BD67F98F43
:103680007977BA9793B71700C1BF81471307000432
:10369000F1B783D7C500797122D406D626D24AD095
:1036A0004ECE898B2E8491CF930774041CC01CC806
:1036B00085475CC8B250225492540259F249456180
:1036C000828074003000AA84BD37A2492A892685E9
:1036D000CE85852201ED8317C40013F7072079FBFF
:1036E000F19B93E727002316F4007DBF97070000A6
:1036F000938747D69CD48357C40008C008C893E773
:1037000007082316F400B247232A340191CF83150A
:10371000E4002685EF00905B01C98357C400F19B4C
:1037200093E717002316F4008357C40033E52701FD
:103730002316A40041B7C5C183A7C5FF011122CC40
:1037400006CE1384C5FF63D307003E942AC6EF005C
:10375000905E138781891C43324589EB2322040044
:1037600000C36244F24005616F00705D637DF40048
:103770001040B306C4006396D7009443DC43B2966E
:1037800014C05CC0F1BF3E87DC4399C3E37DF4FE07
:1037900014433306D700631F86001040B29614C34B
:1037A0003306D700E39FC7FA9043DC43B29614C3B5
:1037B0005CC345BF6375C400B1471CC15DB7104011
:1037C000B306C4006396D7009443DC43B29614C09A
:1037D0005CC040C379B7828041114AC013894189D6
:1037E0008327090022C426C206C6AA842E8491E734
:1037F0008145EF0030382320A900A2852685EF00FF
:1038000070377D59631A25017D54B24022852244C8
:103810009244024941018280130435007198E30605
:1038200085FEB305A4402685EF00D034E31F25FDB7
:10383000E1BF011126CA93843500F1984AC806CE2B
:1038400022CC4EC6A104B1472A8963F5F406B144DF
:1038500063E4B4064A85EF00104E9389818983A7FB
:1038600009003E842DE4A6854A85BD37FD572A848C
:103870006317F50C03A40900A287C5EB8329040094
:1038800081454A85A299EF00F02E6393A90A1C4056
:103890008D049D8CF198A104B14763F3F400B14409
:1038A000A6854A85153FFD576304F5081C40A69779
:1038B0001CC03DA8E3DE04F8B1472320F900014510
:1038C000F2406244D2444249B249056182801440C8
:1038D000858E63C906042D47637ED70204C0330773
:1038E00094006397870223A0E9005C4014C35CC383
:1038F0004A85EF00D0441305B40093074400619952
:103900003307F540E30EF5FA3A94898F1CC04DBF9A
:10391000D8C3E1BF58406395870023A0E900C9BF21
:10392000D8C3F9B7A287404035BF3E84DC43B1B766
:10393000B1472320F9004A85EF00704049B704C120
:1039400045BF01114AC803A9850022CC4EC656C204
:103950005AC006CE26CA52C483AA05002E84328BD2
:10396000B68963E826078397C50013F7074825C380
:1039700058488D448C49B384E4020947B38ABA405D
:103980002A8AB3C4E40213871600569763F3E4004F
:10399000BA8493F70740B5C7A6855285593D2A8951
:1039A00035C90C485686EFC0AFF18357C40093F772
:1039B000F7B793E707082316F4002328240144C827
:1039C0005699B38454412320240104C44E8963F3DF
:1039D00029014E8908404A86DA85EFC0CFF01C44A1
:1039E0000145B38727411CC41C40CA971CC0F24044
:1039F0006244D2444249B249224A924A024B05618A
:103A0000828026865285EF0010342A895DF50C48A5
:103A100052851533B1472320FA008357C4007D55E2
:103A200093E707042316F400D9B783D7C50035718F
:103A300022CD26CB4AC952C506CF4EC756C35AC15E
:103A4000DEDEE2DCE6DA93F707082A8A2E89B28402
:103A50003684A1C39C4995EF93050004D93B2320EC
:103A6000A9002328A90015E1B1472320FA007D55BC
:103A7000FA406A44DA444A49BA492A4A9A4A0A4BFD
:103A8000F65B665CD65C0D61828093070004232A96
:103A9000F90093070002A304F1029307000302D286
:103AA0002305F10222C6930B5002971A0000938A55
:103AB0006A23054C294B26848347040099C3639CE1
:103AC0007709B30C9440630D9400E6862686CA8578
:103AD0005285853DFD576301F51A9257E6973ED210
:103AE00083470400638A0718FD579304140002C833
:103AF00002CE3ECA02CCA309010482D483C50400CD
:103B000015465685EF009021C2471384140031E515
:103B100013F7070109C713070002A309E10413F70C
:103B2000870009C71307B002A309E10483C6040094
:103B30001307A002638BE602F247268481462546DE
:103B40000347040093051400130707FD6375E60699
:103B50008DC63ECE1DA0050485B7330555413315EE
:103B6000AC00C98F3EC8A28451BF324793064700BC
:103B7000184336C6634A07023ACE03470400930748
:103B8000E002631EF704034714009307A002631AC0
:103B9000F702B2470904138747009C433AC663D330
:103BA0000700FD573ECA25A83307E04093E72700EA
:103BB0003ACE3EC8D9B7B38767032E848546BA97F5
:103BC00041B7050402CA81468147254603470400E0
:103BD00093051400130707FD6376E606E1F68345B7
:103BE00004000D461715000013054510EF001013D3
:103BF00011CD971700009387670F1D8DC2471307DC
:103C000000043317A700D98F05043EC8834504007C
:103C10001946171500001305A50D9304140023047D
:103C2000B102EF00B00F2DC19307000095E74247A6
:103C3000B2471377071009CF91073EC69257CE9728
:103C40003ED295BDB38767032E848546BA97BDBF24
:103C50009D07E19BA107D5B77800970600009386E2
:103C600086CE4A860C08528597000000E7000000C7
:103C7000FD57AA89E314F5FC8357C90093F707049D
:103C8000E39707DE1255EDB37800970600009386A0
:103C900086CB4A860C085285112AD9BF797156CA3B
:103CA0009C49BA8A984522D44AD04ECE52CC06D6E8
:103CB00026D25AC85EC6AA892E843289368A63D330
:103CC000E700BA872320F9000347340401C78507BA
:103CD0002320F9001C4093F7070291C783270900AE
:103CE00089072320F9000440998891E8130B940177
:103CF000FD5B5C4403270900998F63CCF404834780
:103D00003404B336F0001C4093F70702A5EB13060A
:103D10003404D2854E85829AFD576303F5041C4016
:103D200011478144998B6399E70044448327090034
:103D30009D8C63D3040081441C4418486354F700ED
:103D4000998FBE94014969047D5B63982405014500
:103D500009A885465A86D2854E85829A631E7501CA
:103D60007D55B250225492540259F249624AD24AC5
:103D7000424BB24B456182808504A5BF3307D40016
:103D800013060003A301C7040347540493871600D6
:103D9000A2978906A381E7049DBF85462286D28526
:103DA0004E85829AE30E65FB050945B7797122D4E9
:103DB0004AD04ECE52CC06D626D256CA5AC803C8CE
:103DC0008501930780072A892E84B289368A63E2A7
:103DD0000703930720069386350463E10703630016
:103DE000081E93078005171600001306E6F0630A05
:103DF000F814930424042301040515A89307D8F9A3
:103E000093F7F70F5546E366F6FE17160000130604
:103E100026F18A07B2979C43B29782871C4393840A
:103E20002504938647009C4314C32381F5048547EA
:103E300045AA90411C43137506089385470039C174
:103E40009C430CC3584063D207149305D002A301CE
:103E5000B40418C463500704B307F04017160000F9
:103E6000130686E92948B68433F70703FD14329711
:103E7000034707002380E4003E87B3D70703E375B9
:103E800007FF8DA09C43137506040CC345DDC207D4
:103E9000C1874DBF6D9A10C0C1B790411C431375C7
:103EA00006089385470001C50CC39C4339A01376CF
:103EB00006040CC37DDA83D707001307F006171634
:103EC0000000130666E36310E80C2148A301040414
:103ED000584018C4E34907F80C40ED990CC0C1F7ED
:103EE000B68451F3A147631EF8001C40858B91CB2B
:103EF00058401C4863C7E70093070003A38FF4FEF4
:103F0000FD14858E14C85287CE867000A2854A851E
:103F10007133FD5A631A550D7D55B2502254925497
:103F20000259F249624AD24A424B456182809C4121
:103F300093E707029CC113088007171600001306B9
:103F4000E6DCA30204050C401C4313F805081385A6
:103F500047006305080008C39C4301A813F8050443
:103F600008C3E30B08FE83D7070013F7150001C74A
:103F700093E505020CC099C3414889BF18401377E7
:103F8000F7FD18C0D5BF294891B7171600001306D2
:103F9000A6D6294835BF90411C43CC491378060862
:103FA000138547006306080008C39C438CC301A81F
:103FB00008C3137606049C4375DA2390B7002328C0
:103FC0000400B68489B71C43D041814593864700DD
:103FD00014C384432685992319C1058D48C05C40CC
:103FE0001CC8A301040405B714482686CE854A855B
:103FF000029AE30355F31C40898B8DE7B24748448E
:10400000E35DF5F03E8511BF85465686CE854A852F
:10401000029AE30365F185045C443247998FE3C556
:10402000F4FEE9BF8144930A94017D5BF5B71C4619
:10403000FD171CC663DA0700184E63C5E700A947E1
:104040006394F5006FF08F821C422E851387170052
:1040500018C22380B7008280011122CC26CA4AC828
:104060004EC652C406CE2A89AE893284B304D60025
:104070007D5A63149400014509A8834504004E86C7
:104080004A8575370504E31645FFF2406244D24481
:104090004249B249224A05618280357122CD26CB40
:1040A0004AC94EC706CF52C556C35AC1DEDEE2DC4E
:1040B000E6DAAA892E843289B68409C51C4D99E3B3
:1040C000EFF08FBF971700009387C7BF631BF404FF
:1040D00003A449007C50858B89EB8357C40093F778
:1040E000072081E7284CEFF0CFD48357C400A18B81
:1040F00099C31C48B5E3A2854E85EFF02F8329CDE7
:104100007C50858BA9C37D55FA406A44DA444A49FC
:10411000BA492A4A9A4A0A4BF65B665CD65C0D613C
:104120008280971700009387E7B76315F40003A414
:1041300089004DB7971700009387C7B4E31CF4F8C4
:1041400003A4C90041BF8357C40093F70720C5FFEC
:10415000284CEFF02FCE45BF93070002A304F102D5
:104160009307000302D22305F10226C6930B5002E7
:10417000971A0000938A0AB7054C294BCA8483C753
:10418000040099C3639B7709B38C2441638D240198
:10419000E6864A86A2854E85C135FD57630EF51821
:1041A0009257E6973ED283C7040063870718FD57EE
:1041B0001389140002C802CE3ECA02CCA30901042E
:1041C00082D48345090015465685892EC24793043B
:1041D000190031E513F7070109C713070002A30906
:1041E000E10413F7870009C71307B002A309E1042C
:1041F000834609001307A002638BE602F247CA84D4
:104200008146254603C7040093851400130707FD64
:104210006375E6068DC63ECE1DA085048DB73305B9
:1042200055413315AC00C98F3EC8268959BF324766
:1042300093064700184336C6634A07023ACE03C7BF
:1042400004009307E002631EF70403C714009307FA
:10425000A002631AF702B2478904138747009C4300
:104260003AC663D30700FD573ECA25A83307E0408E
:1042700093E727003ACE3EC8D9B7B3876703AE8429
:104280008546BA9741B7850402CA814681472546CB
:1042900003C7040093851400130707FD6374E60643
:1042A000E1F683C504000D4617150000130505A4AB
:1042B000B52411CD97170000938747A31D8DC247E2
:1042C000130700043317A700D98F85043EC883C5A0
:1042D0000400194617150000130585A11389140061
:1042E0002304B102252C25CD9307000095E7424712
:1042F000B2471377071009CF91073EC69257D2975E
:104300003ED2ADBDB3876703AE848546BA9749B741
:104310009D07E19BA107D5B778009706000093861B
:10432000E6D322860C084E8597000000E7000000C7
:10433000FD572A8AE314F5FC7C50858B89EB835763
:10434000C40093F7072081E7284CEFF0AFAE835706
:10435000C40093F70704E39807DA125575B37800A1
:1043600097060000938686CF22860C084E85EFF0D4
:10437000FFA37DBF411122C42A842E8523AE01886C
:1043800006C6A926FD576316F50083A7C18991C308
:104390001CC0B240224441018280411122C42E84BB
:1043A0008395E50006C6312C634905007C48AA9731
:1043B0007CC8B2402244410182808357C4007D778B
:1043C0007D17F98F2316F400EDB783D7C5000111CF
:1043D00022CC26CA4AC84EC606CE93F70710AA8436
:1043E0002E843289B68991C78395E50089460146B6
:1043F00009228357C4007D777D17F98F8315E40068
:104400002316F4006244F240CE864A86B2494249FD
:104410002685D24405613DA8411122C42E8483958E
:10442000E50006C6F9207D578357C400631BE500ED
:104430007D777D17F98F2316F400B24022444101A5
:1044400082800567D98F2316F40068C8FDB783956D
:10445000E50035A0411122C42A842E85B285368616
:1044600023AE018806C67524FD576316F50083A7A1
:10447000C18991C31CC0B2402244410182804111D4
:1044800022C42A842E8523AE018806C6952AFD57AC
:104490006316F50083A7C18991C31CC0B2402244B2
:1044A00041018280411122C42A842E85B28523AE27
:1044B000018806C6952AFD576316F50083A7C189B2
:1044C00091C31CC0B240224441018280411122C4E8
:1044D0002A842E8523AE018806C65122FD57631615
:1044E000F50083A7C18991C31CC0B2402244410199
:1044F0008280411122C42A842E85B285368623AE5D
:10450000018806C6A52AFD576316F50083A7C18951
:1045100091C31CC0B24022444101828093F5F50F43
:104520002A966314C5000145828083470500E38D08
:10453000B7FE0505FDB7138581886FF08F8F138552
:1045400081886FF02F8F011122CC06CE26CA4AC86F
:104550004EC652C4328499E96244F240D244424980
:10456000B249224AB28505616FF0AFAC09EEEFF0B7
:104570008F9C8144F24062444249B249224A2685D6
:10458000D244056182802A8AAE848D202A8963669E
:10459000850093571500E3EF87FCA2855285EFF065
:1045A0004FA9AA8979D52286637389004A86A68590
:1045B0004E85EFB0FFB0A6855285EFF0CF97CE8441
:1045C00055BF411122C42A842E85B285368623AE7A
:1045D000018806C6C128FD576316F50083A7C18967
:1045E00091C31CC0B24022444101828083A7C5FF11
:1045F0001385C7FF63D50700AA959C413E9582802D
:10460000411106C622C493089003730000002A8457
:104610006357050033048040852A00C17D54B240B1
:104620002285224441018280757126C306C7AE846B
:1046300022C5930800058A85730000002A84635709
:10464000050033048040892200C17D5426858A8577
:10465000ED20BA4022852A449A44496182805971EA
:104660002C0086D6D137FD576308F50032453581D9
:104670000589B650656182800145E5BF411106C6D6
:1046800022C49308E003730000002A8463570500E6
:1046900033048040D52800C17D54B2402285224495
:1046A00041018280411106C622C49308F0037300C1
:1046B00000002A846357050033048040F12000C1C4
:1046C0007D54B24022852244410182809386018A32
:1046D0009842411106C6AA870DE39308600D014573
:1046E000730000007D576319E5007928B1471CC1AC
:1046F0007D55B2404101828088C298429308600D86
:10470000BA973E8573000000E311F5FE88C23A8532
:10471000CDB7411106C622C49308000473000000FF
:104720002A846357050033048040B92800C17D54B2
:10473000B24022852244410182809C41B845231029
:10474000F5009C452311F5009C495CC1DC4923140C
:10475000F5009C4D2315F500DC4D2316F5009C510A
:104760002317F5009C591CC9BC417CC59C5D3CC508
:10477000FC4518CDB84D5CCDFC4D18D5B8555CD571
:10478000FC5518DD5CDD828003A50181828000007C
:104790005C010000780100009A010000BC010000EB
:1047A000CA010000D8010000FA0100001C0200004C
:1047B00030020000360100005201000078020000C3
:1047C00094020000B6020000D8020000E6020000D9
:1047D000F402000016030000380300004C03000040
:1047E000520200006E020000253032757320253021
:1047F00033756D732025303375757320000000000C
:10480000F80E0000B20E0000D20E0000B20E000042
:10481000B20E00001A100000D20F0000B00F00000E
:10482000D20F0000B00F0000CA0F0000E40F00001C
:10483000B00F0000B00F0000D20F0000D20F000038
:10484000D20F0000B00F0000B00F0000B00F00004A
:10485000B00F0000B00F0000B00F0000B00F00005C
:10486000B00F0000B00F0000B00F0000B00F00004C
:10487000B00F0000B00F0000B00F0000B00F00003C
:10488000B00F0000B00F0000B00F0000B00F00002C
:10489000B00F0000B00F0000B00F0000B00F00001C
:1048A000B00F0000B00F0000B00F0000B00F00000C
:1048B000B00F0000B00F0000B00F0000B00F0000FC
:1048C000B00F0000B00F0000B00F0000B00F0000EC
:1048D000B00F0000D20F0000CA0F0000E01C000063
:1048E000421C0000061D0000421C0000421C00008B
:1048F000BC1E0000961E0000B41D0000A21D00009A
:10490000B41D0000141E00001E1E0000B41D000097
:104910005A1E00006A1E0000BA1D0000BA1D0000E9
:1049200030313233343536373839414243444546E5
:1049300053746172740A00004368697049442848DE
:104940006578293D253032580A000000464C415315
:10495000485F524F4D415F55494428486578293D8D
:104960002530325820253032582025303258202525
:10497000303258202530325820253032582025300A
:10498000325820253032580A0000000048796472FD
:1049900061555342335F5553422046572076312E9E
:1049A000302E312032322D4175672D32303232288F
:1049B00043505520467265713D2564204D487A2943
:1049C0000A0000004445465F454E4450315F4D416A
:1049D000585F53495A453D2564204445465F454E3E
:1049E0004450325F4D41585F53495A453D25640A52
:1049F00000000000486172644661756C740000003C
:104A00002053503D3078253038580A00204D494514
:104A10003D3078253038580A00000000204D5354AE
:104A2000415455533D3078253038580A0000000075
:104A3000204D43415553453D3078253038580A00C4
:104A4000636D64204C4F47520A000000636D642080
:104A50005553425320555342330A00005553425395
:104A600020555342333A0A4C494E4B5F53544154FC
:104A700055533D3078253038580A4C494E4B5F45E8
:104A800052525F5354415455533D30782530385875
:104A90000A4C494E4B5F4552525F434E543D30786D
:104AA0002530385800000000636D64205553425390
:104AB00020555342320A0000555342532055534269
:104AC000323A0A555342322053504545443D2564FD
:104AD0002028303D46532C313D48532C323D4C5319
:104AE000290A5465737420656E64207769746820A0
:104AF000737563636573730A000000005553425376
:104B000020555342323A0A555342322053504545BC
:104B1000443D25642028303D46532C313D48532CDC
:104B2000323D4C53290A54657374206661696C7573
:104B3000726520656E642077697468206572726F93
:104B4000720A0000636D6420555342320A0000006F
:104B5000466F72636520555342320A00636D6420CC
:104B6000555342330A000000466F72636520555367
:104B700042330A00434D4420554E4B4E0A0000007C
:104B800000010202030303030404040404040404F4
:104B900005050505050505050505050505050505C5
:104BA00006060606060606060606060606060606A5
:104BB0000606060606060606060606060606060695
:104BC0000707070707070707070707070707070775
:104BD0000707070707070707070707070707070765
:104BE0000707070707070707070707070707070755
:104BF0000707070707070707070707070707070745
:104C00000808080808080808080808080808080824
:104C10000808080808080808080808080808080814
:104C20000808080808080808080808080808080804
:104C300008080808080808080808080808080808F4
:104C400008080808080808080808080808080808E4
:104C500008080808080808080808080808080808D4
:104C600008080808080808080808080808080808C4
:104C700008080808080808080808080808080808B4
:104C80000000000000000000000000000000000024
:104C90000000000000000000000000000000000014
:104CA0000000000000000000000000000000000004
:104CB00000000000000000000000000000000000F4
:104CC00000000000000000000000000000000000E4
:104CD00000000000000000000000000000000000D4
:104CE000232D302B20000000686C4C006566674562
:104CF0004647000030313233343536373839414297
:104D000043444546000000003031323334353637F5
:104D100038396162636465660000000000F1FFFFDE
:104D200016F1FFFFD6F0FFFFD6F0FFFFD6F0FFFF32
:104D3000D6F0FFFF16F1FFFFD6F0FFFFD6F0FFFF22
:104D4000D6F0FFFFD6F0FFFF7AF2FFFF7EF1FFFF04
:104D500012F2FFFFD6F0FFFFD6F0FFFFAAF2FFFF2F
:104D6000D6F0FFFF7EF1FFFFD6F0FFFFD6F0FFFF8A
:044D70001AF2FFFF35
:104D74008E00000000010500010084000000010015
:104D840000002800440065007600690063006500A7
:104D940049006E00740065007200660061006300E3
:104DA4006500470055004900440000004E00000023
:104DB4007B003800320043003300430032004600D9
:104DC40035002D0039003500410034002D00340039
:104DD4004300380035002D0039003500450034000B
:104DE4002D003500340046003800390044004300EB
:104DF400320045004600310041007D000000000003
:104E04002800000000010400010000000000000070
:104E1400000157494E5553420000000000000000B5
:104E240000000000000000000A000000000003066B
:104E340048003E00040004003000530065006C008C
:104E44006500630074006900760065005300750016
:104E54007300700065006E00640045006E00610020
:104E640062006C00650064000000040001000000A2
:104E7400050F1600020710021EF400000A100300BA
:104E84000C00020AFF07000012034D005300460005
:104E94005400310030003000010000003C034800A1
:104EA4007900640072006100550053004200330031
:104EB4005F0053004E003A00200020002000200034
:104EC40020002000200020002000200020002000DE
:104ED4002000200020002000140348007900640012
:104EE400720061005500530042003300140348006F
:104EF40079006400720061005500530042003300E1
:104F040012034800790064007200610042007500D9
:104F140073000000090246000101008064090400D6
:104F24000004FFFFFF0007058102000400063003B0
:104F34000000000705010200040006300300000021
:104F44000705820200040006300300000007050282
:104F540002000400063003000000000009024B00B8
:104F64000201008064080B0002020200010904002F
:104F740000010202000005240010010524010001C3
:104F84000424020205240600010705820B0002071F
:104F940009040100020A0000000705810A00020753
:104FA4000705010A000207001201000300000009BE
:104FB400C016DC0500010102030100001201100209
:104FC40000000040C016DC050011010203010000CE
:104FD40000000000C04C0000A04C0000804C000009
:104FE40000000000000000000000000000000000BD
:104FF40000000000000000000000000000000000AD
:10500400000000000000000000000000000000009C
:10501400000000000000000000000000000000008C
:10502400000000000000000000000000000000007C
:105034000002000004030904C016DC05F4010000AA
:0C5044006002002000000000600200205C
:00000001FF
