:040000006F204074B9
:1000040000000000000000006F2060706F2040704E
:1000140011BFF9F70000000000000000000000001C
:1000240000000000000000000000000000000000CC
:100034006F20206E000000006F20C06D00000000E3
:100044006F20606D6F0010716F20206D6F20006D48
:100054006F10E0316F1000016F20A06C6F20806C76
:100064006F20606C6F1030706F20206C6F20006CFC
:100074006F20E06B6F20C06B6F20A06B6F20604D12
:100084006F20606B6F20406B6F20206B6F20006BC4
:100094006F20E06A00000000000000000000000083
:1000A400000000000000000000000000000000004C
:0C00B40000000000000000000000000040
:1000C0002A8309CA83830500230073007D16050374
:1000D00085056DFA82802A8311C62300B3007D1640
:1000E000050365FE828015C22A8385466367B500D5
:1000F000FD561307F6FF3A93BA9583830500230054
:1001000073007D163693B6956DFA8280A94763E633
:10011000B7028D679387C7248A05BE959C41828765
:10012000B7170040B44F1347F5FF758FB8CFF84BA2
:10013000498FF8CBB843498FB8C38280B7170040C6
:10014000B84F498FE5B7B7170040F84B1345F5FF97
:10015000698FF8CBB84B698FB8CBB843798DA8C3FA
:100160008280B7170040F44F1347F5FFF98EF4CFA4
:10017000F44BF98EF4CBB44BC98EB4CBB443758F2A
:10018000B8C38280B7170040F44F1347F5FFF98ECC
:10019000F4CFF44BC98EF4CBB44BF98EB4CBB4434B
:1001A000758FB8C38280B7170040F44F1347F5FF2F
:1001B000C98E75BFB7170040F44F1347F5FFC98EBE
:1001C000C1BFB7170040F44F1347F5FFC98EF4CFF6
:1001D000B44FF98EB4CFF44B758FF8CBB843498F39
:1001E000B8C38280B7170040F44F1347F5FFC98E9C
:1001F000F4CFB44FC98EB4CFF44B758FF8CBB8435E
:10020000498FB8C38280B7170040F44F1347F5FFFA
:10021000F98EF4CFB44FF98E75BFB7170040F44F85
:100220001347F5FFF98EE9B7A94763E6B7028D6773
:10023000938787278A05BE959C418287B717004020
:10024000B45F1347F5FF758FB8DFF85B498FF8DBB4
:10025000B853498FB8D38280B7170040B85F498F31
:10026000E5B7B7170040F85B1345F5FF698FF8DB7A
:10027000B85B698FB8DBB853798DA8D38280B71784
:100280000040F45F1347F5FFF98EF4DFF45BF98E5D
:10029000F4DBB45BC98EB4DBB453758FB8D3828002
:1002A000B7170040F45F1347F5FFF98EF4DFF45BF6
:1002B000C98EF4DBB45BF98EB4DBB453758FB8D35D
:1002C0008280B7170040F45F1347F5FFC98E75BFF2
:1002D000B7170040F45F1347F5FFC98EC1BFB717CA
:1002E0000040F45F1347F5FFC98EF4DFB45FF98E69
:1002F000B4DFF45B758FF8DBB853498FB8D38280D5
:10030000B7170040F45F1347F5FFC98EF4DFB45F01
:10031000C98EB4DFF45B758FF8DBB853498FB8D35F
:100320008280B7170040F45F1347F5FFF98EF4DFC2
:10033000B45FF98E75BFB7170040F45F1347F5FF40
:10034000F98EE9B799AAB717004013077005238003
:10035000E700130780FA2380E70003C767001367ED
:1003600017042383E700238007008280A1673307F7
:10037000F500B70708006376F710B306C70001451C
:1003800063F2F6108D4763FFC70EB7170040238D49
:1003900007009D46238DD70013580701AD46238CD7
:1003A000D7001378F80FB716004083C7A601E207FD
:1003B000E187E3CC07FE13558700238C06011375F4
:1003C000F50FB716004083C7A601E207E187E3CC2B
:1003D00007FE238CA6001377F70FB716004083C7DC
:1003E000A601E207E187E3CC07FE238CE60037177E
:1003F00000408347A701E207E187E3CC07FE83477C
:100400008701371700408347A701E207E187E3CC64
:1004100007FE83478701719A2E96B717004003C7DE
:10042000A70162076187E34C07FE03C7870103C783
:10043000A70162076187E34C07FE03C7870103C773
:10044000A70162076187E34C07FE03C7870103C763
:10045000A70162076187E34C07FE03C78701D84BFA
:10046000910523AEE5FEE39CC5FA371700408347AC
:10047000A701E207E187E3CC07FE230D070005454E
:10048000828001458280B7270040C8C70947238082
:10049000E70051472380E7008280411106C62D22E4
:1004A000B7F700E023AA07007D57D8C798CBD8C379
:1004B00098C71307501098C3692C37060020B74718
:1004C0000F002328A62C938707241306803EB357DA
:1004D000F502B24023A2018223AE01803355C5024A
:1004E00023A0F18223ACA18041018280B7F700E014
:1004F0008C4703A847009847E39CE5FE83A7018249
:1005000083A6418233B7A702B386A6023697B38784
:10051000A70209E79306200263EED7029388E7FD5E
:10052000B3B7F8007D173385E700B7F700E09847C9
:10053000D0439447E31DD7FE3306C840B336C80006
:100540003387E540158F6366E500E312A7FEE3F00D
:10055000C8FE828093072002D1B7B7F700E08C472E
:1005600003A847009847E39CE5FE83A7818183A603
:10057000C18133B7A702B386A6023697B387A70215
:1005800009E79306200263EED7029388E7FDB3B72D
:10059000F8007D173385E700B7F700E09847D043B0
:1005A0009447E31DD7FE3306C840B336C8003387EF
:1005B000E540158F6366E500E312A7FEE3F0C8FE91
:1005C000828093072002D1B7B7470F009387072493
:1005D0003355F502930700051375F50F6306F50E05
:1005E00063EAA706F9476308F5109307C003631988
:1005F000F502B7170040130770052380E7001307C3
:1006000080FA2380E700130780042384E7001307A0
:1006100020F82385E700B717004023800700828079
:10062000BD47E31AF5FEB717004013077005238096
:10063000E700130780FA2380E700130720042384D0
:10064000E700130700F82385E700B7170040238071
:1006500007008280930780076306F50C9307000A62
:100660006319F502B7170040130770052380E700F0
:10067000130780FA2380E700130730042384E70080
:10068000130720F82385E700B717004023800700F1
:10069000828093070006E310F5F8B71700401307B0
:1006A00070052380E700130780FA2380E700130713
:1006B00050042384E700130720F82385E700B717C9
:1006C0000040238007008280B717004013077005A1
:1006D0002380E700130780FA2380E70013076004F4
:1006E0002384E700130720F82385E700B7170040AD
:1006F000238007008280B71700401307700523800E
:10070000E700130780FA2380E7001307000423841F
:10071000E700130720F82385E700B7170040238080
:1007200007008280B7170040130770052380E70099
:10073000130780FA2380E700130740042384E700AF
:10074000130720F82385E700B71700402380070030
:100750008280B716004083C7860003C7A600BD8B02
:10076000098B19CB8DCB83C7860037459C1C13059D
:1007700005803345F502828091CB83C7860037C55B
:10078000C901130505383345F502828037851E00FF
:1007900013050548828037C5C901130505388280D5
:1007A000B7470040130770052396E780130770F8DA
:1007B0002381E7800D47A381E78013070004A3800E
:1007C000E78005472387E7808280374700408347DB
:1007D00027801A0593F7F703C98F93F7F70F2301C3
:1007E000F780828019CDB747004003C717804D8F2F
:1007F000A380E78003C70780136787002380E78013
:100800008280374700408347178093C5F5FFED8FFF
:10081000A300F7808280B747004083C7A7809DC3AD
:10082000AA8737470040834687803E868507A38F87
:10083000D7FE8346A780E5FA3305A64005054205A5
:100840004181828001458280411181451305F0E795
:1008500006C622C4653881457D55F93237140040FB
:100860007C54370740009D45D98F7CD43705400024
:10087000653A7C54370780008145D98F7CD4370591
:1008800080005D327C5437070001B240D98F7CD4A0
:100890002244854537050001410179B241110145E6
:1008A00006C622C4EF10600DB797004023A00700D2
:1008B00037071000B7E700E023A0E7103707200054
:1008C00023A0E7103707020023A0E7103755FE03E7
:1008D000B727004005472381E7001305056C6536FF
:1008E000372402200566814513050400EFF0AFFEB2
:1008F000B78700401307001498C34947D8C3375738
:100900004C00130717B4B786004011A06DC39C4A72
:100910007D17918BE5FF23AE060623AC060623A6C2
:10092000060823A4060823AE060823AC060823A65F
:10093000060A23A4060A23AE060A23AC060A23A647
:10094000060C23A4060C23AE060C23AC060C23A62F
:10095000060E23A4060ECD47DCD2B707030093870B
:1009600017029CD223A806069C42130404003717E2
:10097000022093E727009CC2B7C710009387D7C710
:100980009CC68947DCC293077070BCDAB737022077
:1009900093870700FCDAB707022023A08608938715
:1009A000070023AAF6081307070023A2E60823A8D6
:1009B000F60883A7860837060404D18F23A4F60817
:1009C00003A78609B707041493870740518F23AC08
:1009D000E60803A7C608B24022445D8F23A6E608B6
:1009E00003A7C609D98F23AEF6084101828001A072
:1009F000411122C406C626C2378400401C48918B90
:100A0000F5FF5C405145B7240220F19B5CC05C407F
:100A100093E727005CC0930780021CC0CD475CC0F1
:100A20002324040099471CD00D3E0566814513859B
:100A30000400EFF04FEA930700141CC037574C0036
:100A4000C9475CC0130717B4B786004011A075C32F
:100A50009C4A7D17918BE5FF23AE060623AC060664
:100A600023A6060823A4060823AE060823AC06081E
:100A700023A6060A23A4060A23AE060A23AC060A06
:100A800023A6060C23A4060C23AE060C23AC060CEE
:100A900023A6060E23A4060ECD47DCD2B70703001B
:100AA000938717029CD223A806069C4293840400D5
:100AB0003717022093E727009CC2B7C7100093871F
:100AC000D7C79CC68947DCC293077070BCDAB737BA
:100AD000022093870700FCDAB707022023A09608BC
:100AE0009387070023AAF6081307070023A2E60846
:100AF00023A8F60883A7860837060404D18F23A409
:100B0000F60803A78609B707041493870740518F97
:100B100023ACE60803A7C608B24022445D8F23A693
:100B2000E60803A7C6099244D98F23AEF60841010F
:100B3000828001A0378700400DE51C4B918BF5FFAB
:100B40005C43F19B5CC35C4393E727005CC3930762
:100B500080021CC3CD475CC32324070099471CD3E4
:100B60008280411122C43724022005668145130585
:100B7000040006C6EFF02FD6B78700401307001415
:100B800098C34947D8C337574C00130717B4B786E3
:100B9000004011A06DC39C4A7D17918BE5FF23AEE9
:100BA000060623AC060623A6060823A4060823AEE1
:100BB000060823AC060823A6060A23A4060A23AEC9
:100BC000060A23AC060A23A6060C23A4060C23AEB1
:100BD000060C23AC060C23A6060E23A4060ECD4756
:100BE000DCD2B7070300938717029CD223A806061E
:100BF0009C42130404003717022093E727009CC28D
:100C0000B7C710009387D7C79CC68947DCC2930734
:100C10007070BCDAB737022093870700FCDAB70799
:100C2000022023A086089387070023AAF60813074B
:100C3000070023A2E60823A8F60883A7860837063C
:100C40000404D18F23A4F60803A78609B707041468
:100C500093870740518F23ACE60803A7C608B2402C
:100C600022445D8F23A6E60803A7C609D98F23AEC9
:100C7000F6084101828001A001113735022022CC03
:100C800026CA9307050006CE4AC84EC652C456C2AD
:100C900003C7170003D46700238AE18223AC818253
:100CA000054683C507006301C702FD574164238AD7
:100CB000F1827D14F24022856244D2444249B24915
:100CC000224A924A0561828083C7470025476362B2
:100CD000F7020D47E37BF7FCED1793F7F70F11478A
:100CE000636FF7080D678A071307472ABA979C4373
:100CF00082871307000CE39AE7FA93070020228902
:100D000063EC870A13070020B3092441A287636BB1
:100D1000870813940701418081A0930780042289EA
:100D200063F8870023ACF182130480041309800464
:100D3000B70700209387870B23A8F182814929A850
:100D40009307E008228963E28706B70700209387AC
:100D5000070023A8F1828149E205E18563C505000A
:100D600023AC318381BF03AA01834A8613050500A2
:100D7000D2854A9AEFF0CFB423A84183D5B7930721
:100D80008002228963F8870023ACF1821304800279
:100D900013098002B70700209387070923A8F1826F
:100DA00081495DBF93070020ADB723ACF1821304E6
:100DB000E0081309E00851BF13090020A1B7011191
:100DC0003735022022CC26CA1307050006CE4AC8B2
:100DD0004EC60354670083471700238AF18223AC71
:100DE00081829306100363E9F6008D668A07938675
:100DF000862BB6979C43828741647D14F2402285FE
:100E00006244FD57238AF182D2444249B2490561C6
:100E100082808347270023ACF1820144F24022857F
:100E20006244D2444249B249056182808347370017
:100E30008D4622896385D70863E3F60405476382FC
:100E4000E70C0947E39AE7FA9307600463F6870023
:100E50001304600413096004B70900209389491A38
:100E60000DA809448547F2402310F500228562440D
:100E700023AC01824249D244B249056182803D4798
:100E8000E39CE7F6D94763E98702B7090020938915
:100E900009104A86CE8513050500EFF06FA2F240D7
:100EA00022856244CA9923AC018223A83183D244AB
:100EB0004249B2490561828059445949F9B703470B
:100EC000270089466309D70463EDE60025CFC947AB
:100ED00063F4870049444949B709002093890919F7
:100EE0004DBF6304F7049307E00EE317F7F0C9471B
:100EF00063F4870049444949B7090020938989115F
:100F000049BFC94763F4870049444949B7090020EC
:100F100093898923BDBFD14763F487005144514968
:100F2000B709002093898916ADB79307C00363F60C
:100F300087001304C0031309C003B7090020938975
:100F4000C91281BF914763F4870011441149B70961
:100F500000209389492C35BF411122C63727004014
:100F600085472303F70003C7C1836303F70A03C759
:100F7000C1838D47631AF7028547238EF182372795
:100F8000004023010700B7E700E0B4434146B0C387
:100F90003706020023A0C718B4C389472300F7000F
:100FA0003244410173002030B7E700E0B4434147C9
:100FB000B8C33706100023A0C718B4C3B443B8C3DE
:100FC0003707200023A0E718B4C3378700401C4B25
:100FD000918BF5FF5C430545F19B5CC35C4393E754
:100FE00027005CC3930780021CC3CD475CC3232446
:100FF000070099471CD3B797004023A00700370785
:101000000002B7E700E023A0E710EF001017ADB72C
:10101000238E0182B7E700E0B4434147B8C33706E7
:10102000100023A0C718B4C3B443B8C337072000C7
:1010300023A0E718B4C3378700401C4B918BF5FF02
:101040005C433244F19B5CC35C4393E727005CC381
:10105000930780021CC3CD475CC323240700994734
:101060001CD3410173002030378700405C47411199
:10107000856622C6F58F91CF930720141CC31C4BA5
:10108000918BF5FF5C43F19B5CC35C435CC385675C
:101090005CC7378700405C47858BA9C785475CC71D
:1010A00003C6D183631F06200D47238EE182B7E775
:1010B00000E0B4434147B8C33706020023A0C71875
:1010C000B4C30946B72600402380C600238106002A
:1010D000B443B8C33707000223A0E718B4C30145DF
:1010E000EF00B009378700405C47918B89CF91476B
:1010F0005CC71C4B918BF5FF5C43F19B5CC35C436D
:1011000093E727005CC3378700405C47A18B639B54
:10111000071C378700405C47B7061000F58F81CF6A
:1011200054C71C4B918BF5FF5C43F19B5CC35C4344
:1011300093E727005CC3378700405C4793F707407D
:1011400095C7930700405CC71C4B858B63850720C0
:101150001C4B918BF5FF5C438566F19B5CC35C4344
:1011600093E727005CC35C43D58F5CC3B786004020
:10117000D8468567938707807D8F19CF0546A38E54
:10118000C182DCC6378700401C4B918BF5FF5C4366
:10119000F19B5CC35C435CC3378700405C47896656
:1011A000F58FB1C754C7378400401C48918BF5FFB9
:1011B0005C40F19B5CC05C4093E727005CC0EFF0B3
:1011C0003F831C5037870040A207A1831CD01C50CE
:1011D0001CD05C4093E707105CC01C4B898BF5FF6B
:1011E0005C43094593F7F7EF5CC3EFF02FB0B78787
:1011F0000040D847A166758F21C7985337060080F5
:10120000518F98D3D4C723AE070603A7C708C1766A
:10121000FD1623A6E70803A7C70923AEE70803A71F
:10122000870823A4E70803A7870923ACE708985396
:101230002207218398D3985398D3D843758FD8C366
:10124000B7870040DC4793F7070485C33787004022
:101250001C4B918BF5FF5C43F19B5CC35C4393E7B4
:1012600017005CC3930700045CC7B7870040DC47E6
:1012700093F7070285C3378700401C4B918BF5FF1E
:101280005C43F19B5CC35C4393E727005CC393071B
:1012900000025CC7B7870040DC47C18B99CF378716
:1012A00000401C4B918BF5FF5C43F19B5CC35C439E
:1012B00093E727005CC3C1475CC732444101730018
:1012C00020301306002830C737060200110670C709
:1012D00023280704A38E0182A386F1820D4723866B
:1012E000E182D9B3A1475CC70547238EE1823787E6
:1012F00000401C4B918BF5FF5C4337061000054501
:10130000F19B5CC35443B7E700E093E6260054C367
:101310009306800214C3CD4654C323240700994684
:1013200014D3B4434147B8C323A0C718B4C3094674
:10133000B72600402380C60023810600B443B8C30B
:101340003707020023A0E718B4C33707000223A021
:10135000E71025257DBB232407001305007DEFF052
:10136000EF98EFF0EFE80947A386E1822386018238
:10137000F5BB011122CE378400405C5026CC4ACA0E
:101380004EC852C613F7170011EF13F7270055E7A1
:10139000A18BF1EF7244E2445249C249324A0561DD
:1013A0007300203013D787001D8BB183858B39CB19
:1013B000F1CB89476306F72875171377F70F914725
:1013C000E3FAE7FC0327C40841837D8B6312072CF3
:1013D000B7270220938707002320F4088327C40837
:1013E0003707E003F98F2326F4088327C40837075B
:1013F000041413070740D98F2326F40893077010AD
:101400007CC049BFE9CF03C7418399476305F716FD
:1014100023A4018213071004B7870040F8C3724465
:1014200037070104B8DF37070114F8DFE2445249F7
:10143000C249324A0561730020303C4C1307000A50
:1014400093F7071E6399E7009307002C3CC42326FB
:101450000404232804047244B78700400947D8D302
:10146000E2445249C249324A0561730020301C5897
:10147000E244A1475CD072445249C249324A0561F4
:101480007300203089476300F71875171377F70F3B
:101490009147E3F1E7F00327840841837D8B6301E3
:1014A000072C03268408B705E003BA866D8E232433
:1014B000C4080326840863F3E700914693F7F60F08
:1014C00013970701518F37060004B7860040518FEC
:1014D0009A0723A4E60893E75700FCC265BD3C5C6D
:1014E00013971700634C07008A0763C80704930724
:1014F00010047CC0B70701043CDC69BDB73702208B
:10150000232C040603C4070093770406B5C3EFF049
:10151000AFF662046184C1676345040C1387F7FF6B
:10152000630FE51463160522B78700401307100404
:10153000F8C337070104B8DFB1BD03C7418395473E
:101540006311F7028D472386F182A386F18218503A
:1015500083A781832207218318D01850E207D98FEF
:101560001CD0B787004023AC070623AE07061DB585
:10157000EFF0FF8479BF83A4818393070020268442
:1015800063F497001304002003A901833735022078
:101590002286CA8513050500EFE09FB283A68182EB
:1015A000338784402299850623ACE18223A82183D6
:1015B00023A4D182E38E04E437870040930710040C
:1015C0007CC3232C07067C5FB70520EC938505C000
:1015D000ED8FD606C18FD58FB7060114D58F7CDF6E
:1015E00055BBFD17630DF50821D193070020E3E3F8
:1015F000A7DAB787004013071004F8C337070114B0
:10160000598DE8DF41BB83278409C183FD8BE9E362
:10161000832784093707E003F98F232CF408B707E1
:101620000220938707002328F408832784093707BB
:101630000404D98F232CF408930790107CC099BB25
:101640008327C409C183FD8BF9E3B7070220938781
:101650000700232AF4088327C4093707E003F98F1A
:10166000232EF4088327C4093707041413070740FF
:10167000D98F232EF4089307B0107CC021BBB78705
:10168000004013071004F8C337070108F8DF19B347
:101690000326C408B705E003BA866D8E2326C40866
:1016A0000326C40863F3E700914693F7F60F1397F8
:1016B0000701B7060014518F938606403786004015
:1016C000558F9A072326E60893E777007CC2D9B1A5
:1016D00003278409B706E0031146758F232CE4081D
:1016E000832684093E876373F60011479377F70FCB
:1016F00013970701558F37060004B7860040518FB6
:101700009A0723ACE60893E79700FCC261B1032770
:10171000C409B706E0031146758F232EE40883261B
:10172000C4093E876373F60011479377F70F139749
:101730000701558FB7060014938606403786004090
:10174000558F9A07232EE60893E7B7007CC299B11C
:101750003787004085077CC3B70701043CDF1DB90C
:10176000B7140220372602209385040013060600D2
:101770000545EF00B06D832784083707E0039384A5
:101780000400F98F2324F408232294088327840873
:1017900037070404D98F2324F408930750107CC022
:1017A000D5BE411106C6B78700402147D8C70145BD
:1017B000EFF04FB8B7E600E0B842C147BCC2370609
:1017C000100023A0C618B8C23726004009472300DE
:1017D000E60023010600B042BCC2B707020023A006
:1017E000F618B0C237060002B797004023A0C61013
:1017F00023800700930690032380D700930670028E
:101800002381D7009306C0FC2388D700A388D70084
:101810002389D700B146A389D700930600042398F3
:10182000D70493060020239AD70437360220239C3E
:10183000D70413060600D0CB372602201306060075
:10184000D0DB371602201306060090CF37060220A1
:101850001306060090DFD0CF2398070623890706DA
:10186000A3890706239AD706238B0706A38B0706AF
:10187000239CD706238D0706A38D0706239E070604
:10188000238FE706A38FE706239007082381E70845
:10189000A381E708239207082383E708A383E708C7
:1018A000239407082385E708A385E70823960708FC
:1018B0002387E708A387E708B24041018280B797F2
:1018C00000401307C0FC2388E700A388E7002389B2
:1018D000E7003147A389E700130700042398E704D2
:1018E00013070020239AE704B7360220239CE7045D
:1018F00093860600D4CBB726022093860600D4DB5D
:10190000B71602209386060094CFB706022093866E
:10191000060094DFD4CF2398070623890706A389FE
:101920000706239AE706238B0706A38B0706239C4B
:10193000E706238D0706A38D0706239E07060947A2
:10194000238FE706A38FE706239007082381E70884
:10195000A381E708239207082383E708A383E70806
:10196000239407082385E708A385E708239607083B
:101970002387E708A387E7088280B797004009E537
:1019800019472380E7008280238007001307900314
:101990002380E700130770022381E7001307C0FCD0
:1019A0002388E700A388E7002389E7003147A3895C
:1019B000E700130700042398E70413070020239A85
:1019C000E704B7360220239CE70493860600D4CBB5
:1019D000B726022093860600D4DBB7160220938632
:1019E000060094CFB70602209386060094DFD4CF7A
:1019F0002398070623890706A3890706239AE70683
:101A0000238B0706A38B0706239CE706238D070677
:101A1000A38D07060947239E0706238FE706A38F9A
:101A2000E706239007082381E708A381E7082392AC
:101A300007082383E708A383E7082394070823857F
:101A4000E708A385E708239607082387E708A38705
:101A5000E7088280011126CA239D018483C701857E
:101A60003735022006CE22CC4AC84EC613070500E1
:101A70000546834507006384C70893F6F70F894737
:101A80006385F606FD57239DF18403D7A185C167C1
:101A9000FD170144630FF70283D7A1851394070153
:101AA000418085CB03D7A1859307F003130400047D
:101AB00063E6E70003D4A18542044180E205E185A5
:101AC00063CD050C83D7A185818FC207C183239D78
:101AD000F184F24022856244D2444249B249056110
:101AE00082801307000CE382E7FA41647D14F24020
:101AF00022856244D2444249B249056182808347CB
:101B000047002547E36FF7FC0D47E370F7FEED173D
:101B100093F7F70F1147636FF7040D678A071307F1
:101B20000738BA979C43828783D6C1859307E0081C
:101B300063E6D70083D7C185C207C183239DF184A3
:101B4000B70700209387070023A6F1843DBF83D603
:101B5000C1859307800463E6D70083D7C185C20798
:101B6000C183239DF184B70700209387870B23A6A9
:101B7000F18421BF83D6C1859307800263E6D70035
:101B800083D7C185C207C183239DF184B707002095
:101B90009387070923A6F184CDBD03A9C1842286BA
:101BA00013050500CA852299EFE08FD123A6218570
:101BB00011BF011122CC239D018403C70185373554
:101BC000022006CE26CA4AC84EC693060500AD4579
:101BD00003C6060063E4E5029377F70F0D678A07F3
:101BE00013074739BA979C4382879377F60163932B
:101BF000071A83D7260005476388E71EFD57239DF4
:101C0000F18403D7A185C167FD178144630BF702F7
:101C100083D7A18593940701C18085C703D7A18588
:101C20009307F0039304000463F5E70262066186FC
:101C3000634A061283D7A185858FC207C183239D7E
:101C4000F184F24062444249B2492685D24405619A
:101C5000828083D4A185C204C180C9BF03C7260086
:101C6000A38AE18479BF83C736000D476384E71EEA
:101C7000636BF70C05476383E7200947E390E7F8B8
:101C8000B707002083D6C1859387C71E23A6F1849A
:101C90009307B004E3E5D7F683D7C185C207C183B4
:101CA000B9BF83C761850547239DE1842380F60082
:101CB00089BF37970040834787008D8BE1E3B707E3
:101CC0000020130700042390E72C03C72600938706
:101CD00041852381E70005472382E7001DB79377FD
:101CE000F6010947638DE71091FB03C7260085477E
:101CF000E319F7F09387418503C73700799BA381E8
:101D0000E70001B783D74600094723100500239D4C
:101D1000E184930510086386B71085456389B70A87
:101D200013082008638A0719E39DE7ECB797004082
:101D300083C7B7070D478D8BE395E7EC2380B6008B
:101D4000239DB1847DBD3D47E39AE7EAB7070020B4
:101D500083D6C1859387071023A6F184D947E3E092
:101D6000D7EA1DBF03A9C184268613050500CA85CD
:101D70002699EFE0EFB423A621856DBD8347870048
:101D800009478D8BE393E7F4B707002021472390A1
:101D9000E72C25BF0947E393E7E603D72600E31FB7
:101DA00007E403C7460093061008630ED71863EED6
:101DB000E61085466302D71AE312F7E4379700402E
:101DC0008347B70793E73700A30DF7061DBD379785
:101DD0000040034777078D450D8BE314B7E223805E
:101DE000F600239DF18431BD370700200347371FDC
:101DF00013770702E30407E0A38BF18419B503C747
:101E0000260093061008630FD70C63EAE6028546A6
:101E10006301D70EE314F7DEB7970040238D070662
:101E2000CDB3B797004083C767070D478D8BE39A03
:101E3000E7DC85472380F600239DF184D9B3930620
:101E40002008E31DD7DA37970040231C0706230D2F
:101E5000F70645BB03C7260089466301D70A63EB33
:101E6000E60271C7B707002083D6C185938707199B
:101E700023A6F184C947E3E4D7D839BDB7070020CA
:101E800083D6C1859387C72423A6F184C947E3E895
:101E9000D7D619B56300F7089307E00EE310F7D61D
:101EA000B707002083D6C1859387871123A6F184C5
:101EB000C947E3E6D7D4CDB3B797004083C7A70798
:101EC0000D478D8BE39FE7D295BD93072008E3175D
:101ED000F7D2379700408347A70793E73700230DD2
:101EE000F70605B337970040231A0706230BF706BA
:101EF00009BBB7970040A38B070621B3B7070020A3
:101F000083D6C1859387C71723A6F184D147E3E819
:101F1000D7CE59B3B707002083D6C1859387C712A0
:101F200023A6F1849307C003E3EBD7CCB5B3B7077F
:101F3000002083D6C1859387472C23A6F18491473F
:101F4000E3EFD7CA91BB379700408347670793E712
:101F50003700230BF70675B13797004083477707A3
:101F600093E73700A30BF70669B9411122C626C4CF
:101F70004AC24EC0379400408347A40013F70702BB
:101F800039CFB73702209387070003C7070003C67E
:101F9000170083D66700A388E1842388C184239E29
:101FA000D1841377070641E72931C167FD1763051F
:101FB000F508B79700402398A70621472389E7062D
:101FC000A389E706B7970040130700022385E700BF
:101FD0003244A2441249824941017300203093F7F0
:101FE000F70F13F727001DCB0347B4008347B40056
:101FF00085463D8B91838D8B6304D7128946630E92
:10200000D70829C7B797004009472385E70032441E
:10201000A2441249824941017300203013F717008E
:1020200055E3918BD5D791472305F40055B71D345F
:10203000C167FD17E31FF5F6B79700402398070621
:102040000D472389E706A389E706ADBF6385D71A45
:10205000D5FB8356C40083D7A18563F2F62283564D
:10206000C400C206C18283D7A185958FC207C183F0
:10207000239DF18483D7A1856389071EB79700400C
:1020800003C7370713478700A389E70603C7370746
:102090001377C70FA389E706B5B7638EE70EBDF3C5
:1020A000B7070220938707005CCC8347B40793C728
:1020B0008700A30DF4068347B40793F7C70FA30D5A
:1020C000F40689B70947A386E18223860182EFF0EF
:1020D0000FFF8547A30104002305F40003C7C18354
:1020E0009376F70FE316F7EEB7E700E03707100037
:1020F00023A0E7103707200023A0E71037070200CE
:1021000023A0E7103755FE03B72700401305056CE1
:102110002381D700EFE02FB70545EFE0BFA14DBD0C
:102120000947638CE708E39F07EC83A7018489EFE5
:10213000B72702209387070023A4F184B717022052
:102140009387070023A2F18403A70184994763EBD7
:10215000E70083A741849387072023A2F184379760
:1021600000401CCF83A701842147850723A0F18469
:1021700083A70184638DE712B797004003C77707F1
:1021800013478700A38BE70603C777071377C70FAB
:10219000A38BE70685BDB7070220938707001CDCE9
:1021A0008347A40793C78700230DF4068347A4073A
:1021B00093F7C70F230DF406B1B583A581843725A6
:1021C00002209304050093850520130600201305C3
:1021D000050023A4B184EFD0BFEE44D88347640741
:1021E00093C78700230BF4068347640793F7C70F51
:1021F000230BF40601BD03C7018515469376F70F3F
:102200006304C7089947639AF60803D7A185930723
:10221000F00383A4C18463E0E70C03D4A1853735C0
:102220000220A68542044180228613050500EFD0D6
:102230003FE983D7A185A29423A69184818FC20709
:10224000C183239DF18431C8B79700402398870646
:1022500003C72707134787002389E70603C7270714
:102260001377C70F2389E70671BBB7970040239800
:10227000070621472389E706A389070661B383D6AA
:10228000A185C206C182C5B303C751852386F182E9
:102290008D46A386D182A301E400B7970040214771
:1022A000A389E7062398070623890706A1BBB7146D
:1022B00002203726022093850400130606000145FC
:1022C00071269384040023A2918423A00184B797EC
:1022D000004084CF55B537350220A685130600048B
:1022E00013050500EFD0DFDD83D7A18593840404B7
:1022F00023A69184938707FCC207C183239DF184A1
:102300001304000491B78347050037070020130723
:10231000C7242304F70083461500B70700209387DE
:102320008723A304D700834605002384D700834670
:102330001500A384D700834625002305D7008346D4
:102340003500A305D700034725002385E700034791
:102350003500A385E7008280034705008D679387DA
:10236000473C935647003D8BBE963E9703C60600FA
:1023700083460700370700201307C712230EC70044
:10238000230FD7008346150013D64600BD8A3E961C
:10239000BE960346060083C606002300C70223013B
:1023A000D7028346250013D64600BD8A3E96BE96C8
:1023B0000346060083C606002302C7022303D70292
:1023C0008346350013D64600BD8A3E96BE96034628
:1023D000060083C606002304C7022305D7028346EE
:1023E000450013D64600BD8A3E96BE9603460600BB
:1023F00083C606002306C7022307D702834655007B
:1024000013D64600BD8A3E96BE960346060083C696
:1024100006002308C7022309D7028346650013D6A6
:1024200046003E9603460600BD8ABE96230AC702B2
:1024300083C60600230BD7028346750013D64600D9
:10244000BD8A3E96B69783C7070083460600230DD4
:10245000F702230CD7028280011122CC3714270700
:10246000130504E006CE26CA4AC84EC6EFD09FED3B
:10247000EFE08FBD130504E0EFE02F8223A001867B
:10248000B737004085492387374113072008239633
:10249000E740130770FC2381E7400D47A381E74025
:1024A00013070004A380E740371400407C4C3785B5
:1024B00007001387018693E707187CCC3C40214630
:1024C0009385018693E707103CC01115232207006E
:1024D000EFD0DFE9B797004023A00700B7E400E0A2
:1024E000B707100023A0F410B707200023A0F410B2
:1024F000B707020023A0F4103755FE03B7270040AA
:10250000238137011305056CEFD0FFF71385018692
:10251000A13513858180C53B0545EFE0AFE13C4423
:102520008545114593E787003CC4EFD03FBE9545F4
:102530002145EFD0BFBDEFE0AFA60145EFE0EFA82A
:1025400095450545238F3185EFE0CFA9B70700807A
:1025500023A0F41001A05D713AD43ED286C696C481
:102560009AC29EC022DE2ADC2EDA32D836D642D07B
:1025700046CE72CC76CA7AC87EC6B747004083C7BB
:1025800047801147BD8B6384E7063147639DE702AF
:102590001385C187EFE02FA883C6C18737270220A4
:1025A000B79700402300D7000547239AE70603C7E3
:1025B000670713478700238BE70603C7670713776F
:1025C000C70F238BE7067254B640A64216438643D4
:1025D0006255D2554256B256225792570258F24887
:1025E000624ED24E424FB24F61617300203083C7BA
:1025F000E185F1DBB796004081479385C187372E8F
:1026000002203743004093884607054803478380EC
:102610003386F50085071377F70F2300E6002300C4
:10262000EE002390080103C7660793F7F70F1347DF
:102630008700238BE60603C766071377C70F238B34
:10264000E60603C7E185E313F7FCB5BF9841B7473A
:10265000535593863723630FD70663E0E602B756D8
:102660004F42938646F56305D70693872723631168
:10267000F70A8547630CF506828093873725E31DAB
:10268000F7FE411122C406C626C205473284630103
:10269000E506B796004083C7860083C68600B70468
:1026A00000208D8B8D8A638AE7020D66856513068F
:1026B0004646FD151385043A392A9385043A228546
:1026C0000566EFD0FF9FB2402244924441018280D0
:1026D0006FD07FC755F16FE06F9C0D66856513065F
:1026E0000642FD151385043AFD20C1BF6FF06F8BC4
:1026F000B7870040944B984FDC4FB70400200D661D
:1027000085651306463DFD151385043AE92075B726
:10271000828001A001A001A001A001A001A001A050
:1027200001A001A001A001A001A001A001A001A0A1
:1027300001A001A001A001A001A001A001A001A091
:1027400001A001A097E1FF1F9381C13717E1FF1F8F
:102750001301418B171500001305C5DE97E5FF1F18
:102760009385458A1386018163FAC500832205009B
:1027700023A0550011059105E3EAC5FE13850181EB
:1027800097F5FF1F938505C26377B50023200500E9
:102790001105E36DB5FE17E501201305A586971514
:1027A0000220938525A66377B50023200500110537
:1027B000E36DB5FE9302800873A0023097E2FFFF3D
:1027C0009382828493E212007390523001458145D6
:1027D000EFF09FC801A03571A6DA86DEA2DCCAD868
:1027E00036C73AC93ECB42CD46CF83A4C18063DC15
:1027F00005009307B0089CC07D55F6506654D6542A
:1028000046590D61828093078020231AF1002AC463
:102810002ACC2E84814799C19387F5FF7D59740195
:102820002C0026853EC83ECE231B210136C2012244
:10283000635525019307B0089CC061D0A24723804F
:10284000070065BF01114AC803A9850022CC4EC606
:1028500056C25AC006CE26CA52C483AA05002E8488
:10286000328BB68963E926078397C50013F70748BB
:102870002DC358488D448C49B384E4020947B38A78
:10288000BA402A8AB3C4E40213871600569763F34A
:10289000E400BA8493F70740BDC7A6855285EF00D0
:1028A000A0792A8935C90C485686EFD07F81835795
:1028B000C40093F7F7B793E707082316F40023281B
:1028C000240144C85699B38454412320240104C4EC
:1028D0004E8963F329014E8908404A86DA85EFD094
:1028E0009F801C440145B38727411CC41C40CA97E4
:1028F0001CC0F2406244D2444249B249224A924A40
:10290000024B0561828026865285EF0070032A897A
:102910005DF50C485285052DB1472320FA008357F9
:10292000C4007D5593E707042316F400D9B783D775
:10293000C500357122CD26CB4AC952C506CF4EC738
:1029400056C35AC1DEDEE2DCE6DA93F707082A8ACC
:102950002E89B2843684A1C39C4995EF9305000467
:10296000E12D2320A9002328A90015E1B147232048
:10297000FA007D55FA406A44DA444A49BA492A4A7B
:102980009A4A0A4BF65B665CD65C0D6182809307BF
:102990000004232AF90093070002A304F10293071D
:1029A000000302D22305F10222C6930B5002971AAC
:1029B0000000938AEAAF054C294B26848347040024
:1029C00099C3639B7709B30C9440630D9400E6862A
:1029D0002686CA855285BD35FD57630EF518925778
:1029E000E6973ED28347040063870718FD57930498
:1029F000140002C802CE3ECA02CCA309010482D44C
:102A000083C50400154656851523C2471384140058
:102A100031E513F7070109C713070002A309E10411
:102A200013F7870009C71307B002A309E10483C69F
:102A300004001307A002638BE602F2472684814656
:102A400025460347040093051400130707FD63752B
:102A5000E6068DC63ECE1DA005048DB73305554153
:102A60003315AC00C98F3EC8A28459BF32479306C4
:102A70004700184336C6634A07023ACE03470400AC
:102A80009307E002631EF704034714009307A002B4
:102A9000631AF702B2470904138747009C433AC6FA
:102AA00063D30700FD573ECA25A83307E04093E7EC
:102AB00027003ACE3EC8D9B7B38767032E84854630
:102AC000BA9741B7050402CA8146814725460347A4
:102AD000040093051400130707FD6374E606E1F68E
:102AE000834504000D46171500001305E59C3D299C
:102AF00011CD971700009387279C1D8DC2471307A0
:102B000000043317A700D98F05043EC8834504008D
:102B10001946171500001305659A93041400230441
:102B2000B10229212DC19307000095E74247B24722
:102B30001377071009CF91073EC69257CE973ED222
:102B4000ADBDB38767032E848546BA9749B79D0705
:102B5000E19BA107D5B77800970600009386C6CE03
:102B60004A860C08528597000000E7000000FD57D8
:102B7000AA89E314F5FC8357C90093F70704E39A85
:102B800007DE1255C5BB7800970600009386C6CBBA
:102B90004A860C085285112AD9BF797156CA9C49B8
:102BA000BA8A984522D44AD04ECE52CC06D626D2E6
:102BB0005AC85EC6AA892E843289368A63D3E70052
:102BC000BA872320F9000347340401C7850723206F
:102BD000F9001C4093F7070291C783270900890772
:102BE0002320F9000440998891E8130B9401FD5BC0
:102BF0005C4403270900998F63CCF40483473404B1
:102C0000B336F0001C4093F70702A5EB130634041B
:102C1000D2854E85829AFD576303F5041C40114707
:102C20008144998B6399E7004444832709009D8C74
:102C300063D3040081441C4418486354F700998FFF
:102C4000BE94014969047D5B63982405014509A888
:102C500085465A86D2854E85829A631E75017D55BA
:102C6000B250225492540259F249624AD24A424B1B
:102C7000B24B456182808504A5BF3307D40013069B
:102C80000003A301C7040347540493871600A297C7
:102C90008906A381E7049DBF85462286D2854E859D
:102CA000829AE30E65FB050945B7797122D44AD0B3
:102CB0004ECE52CC06D626D256CA5AC803C8850173
:102CC000930780072A892E84B289368A63E2070334
:102CD000930720069386350463E107036300081E0B
:102CE00093078005170600001306C67D630AF814D3
:102CF000930424042301040515A89307D8F993F736
:102D0000F70F5546E366F6FE170600001306067E2B
:102D10008A07B2979C43B29782871C439384250409
:102D2000938647009C4314C32381F504854745AA35
:102D300090411C43137506089385470039C19C4395
:102D40000CC3584063D207149305D002A301B40406
:102D500018C463500704B307F040170600001306B9
:102D600066762948B68433F70703FD143297034784
:102D700007002380E4003E87B3D70703E37507FF0E
:102D80008DA09C43137506040CC345DDC207C187A3
:102D90004DBF6D9A10C0C1B790411C431375060812
:102DA0009385470001C50CC39C4339A013760604E4
:102DB0000CC37DDA83D707001307F006170600005F
:102DC000130646706310E80C2148A3010404584020
:102DD00018C4E34907F80C40ED990CC0C1F7B6845C
:102DE00051F3A147631EF8001C40858B91CB5840DE
:102DF0001C4863C7E70093070003A38FF4FEFD148C
:102E0000858E14C85287CE867000A2854A8571339C
:102E1000FD5A631A550D7D55B250225492540259F1
:102E2000F249624AD24A424B456182809C4193E713
:102E300007029CC113088007170600001306C66925
:102E4000A30204050C401C4313F805081385470032
:102E50006305080008C39C4301A813F8050408C3D0
:102E6000E30B08FE83D7070013F7150001C793E5AE
:102E700005020CC099C3414889BF18401377F7FD7C
:102E800018C0D5BF294891B71706000013068663FE
:102E9000294835BF90411C43CC4913780608138557
:102EA00047006306080008C39C438CC301A808C3FD
:102EB000137606049C4375DA2390B7002328040098
:102EC000B68489B71C43D04181459386470014C31B
:102ED00084432685A12819C1058D48C05C401CC8C3
:102EE000A301040405B714482686CE854A85029AB4
:102EF000E30355F31C40898B8DE7B2474844E35DFB
:102F0000F5F03E8511BF85465686CE854A85029AE4
:102F1000E30365F185045C443247998FE3C5F4FE11
:102F2000E9BF8144930A94017D5BF5B793F5F50FF2
:102F30002A966314C5000145828083470500E38D0E
:102F4000B7FE0505FDB7D1CD83A7C5FF011122CC82
:102F500006CE1384C5FF63D307003E942AC6B52C62
:102F60001387C1861C43324581EB2322040000C332
:102F70006244F2400561ADA4637DF4001040B306E5
:102F8000C4006396D7009443DC43B29614C05CC07F
:102F9000F9BF3E87DC4399C3E37DF4FE1443330657
:102FA000D700631F86001040B29614C33306D700C3
:102FB000E390C7FC9043DC43B29614C35CC34DBF9F
:102FC0006375C400B1471CC165B71040B306C400A7
:102FD0006396D7009443DC43B29614C05CC040C3F0
:102FE00041BF828041114AC013898186832709002D
:102FF00022C426C206C6AA842E8489E781455D2A9A
:103000002320A900A285268575227D59631A2501F2
:103010007D54B2402285224492440249410182807B
:10302000130435007198E30685FEB305A440268598
:103030005122E31025FFE9BF011126CA9384350010
:10304000F1984AC806CE22CC4EC6A104B1472A89BF
:1030500063F3F406B14463E2B4064A85BD2A93895A
:10306000C18683A709003E8425E4A6854A859D3F45
:10307000FD572A846314F50C03A40900A287D5E741
:103080008329040081454A85A2992D226392A90AC9
:103090001C408D049D8CF198A104B14763F3F400AA
:1030A000B144A6854A853D3FFD576303F5081C40A2
:1030B000A6971CC03DA8E3D004FAB1472320F9002D
:1030C0000145F2406244D2444249B24905618280DE
:1030D0001440858E63C806042D47637DD70204C063
:1030E000330794006396870223A0E9005C4014C371
:1030F0005CC34A85F5201305B40093074400619929
:103100003307F540E30FF5FA3A94898F1CC055BF99
:10311000D8C3E9BF58406395870023A0E900D1BF19
:10312000D8C3C1BFA287404081B73E84DC4381BF82
:10313000B1472320F9004A85652059B704C155BF1E
:10314000011122CC06CE26CA4AC84EC652C43284C9
:1031500091E96244F240D2444249B249224AB285DE
:103160000561D9BD01EEC5338144F2406244424954
:10317000B249224A2685D244056182802A8AAE84D9
:103180009D202A896366850093571500E3EF87FC2D
:10319000A28552855535AA8961D922866373890033
:1031A0004A86A6854E85EFC0BFF1A6855285613B54
:1031B000CE8465BF411122C42A842E8523A80186AE
:1031C00006C63528FD576316F50083A7018791C30E
:1031D0001CC0B2402244410182801385418731A83E
:1031E0001385418721A883A7C5FF1385C7FF63D532
:1031F0000700AA959C413E958280828082809386BA
:1032000081879842411106C6AA870DE39308600D95
:103210000145730000007D576319E5002520B14783
:103220001CC17D55B2404101828088C298429308FA
:10323000600DBA973E8573000000E311F5FE88C269
:103240003A85CDB703A5C180828000004601000009
:103250006201000084010000A6010000B40100002A
:10326000C2010000E4010000060200001A02000092
:10327000200100003C010000620200007E0200000C
:10328000A0020000C2020000D0020000DE02000026
:103290000003000022030000360300003C0200008F
:1032A00058020000400D0000FA0C00001A0D00004A
:1032B000FA0C0000FA0C0000620E00001A0E00006A
:1032C000F80D00001A0E0000F80D0000120E0000AC
:1032D0002C0E0000F80D0000F80D00001A0E000082
:1032E0001A0E00001A0E0000F80D0000F80D000084
:1032F000F80D0000F80D0000F80D0000F80D0000BA
:10330000F80D0000F80D0000F80D0000F80D0000A9
:10331000F80D0000F80D0000F80D0000F80D000099
:10332000F80D0000F80D0000F80D0000F80D000089
:10333000F80D0000F80D0000F80D0000F80D000079
:10334000F80D0000F80D0000F80D0000F80D000069
:10335000F80D0000F80D0000F80D0000F80D000059
:10336000F80D0000F80D0000F80D0000F80D000049
:10337000F80D0000F80D00001A0E0000120E0000FB
:10338000281B00008A1A00004E1B00008A1A000049
:103390008A1A0000041D0000DE1C0000FC1B000057
:1033A000EA1B0000FC1B00005C1C0000661C000007
:1033B000FC1B0000A21C0000B21C0000021C00004C
:1033C000021C00003031323334353637383941424F
:1033D000434445465553425320555342333A0A4CD1
:1033E000494E4B5F5354415455533D307825303846
:1033F000580A4C494E4B5F4552525F535441545505
:10340000533D3078253038580A4C494E4B5F455271
:10341000525F434E543D307825303858000000004C
:103420005553425320555342323A0A5553423220A3
:1034300053504545443D25642028303D46532C31AA
:103440003D48532C323D4C53290A54657374206512
:103450006E64207769746820737563636573730A9B
:10346000000000005553425320555342323A0A554A
:103470005342322053504545443D25642028303D79
:1034800046532C313D48532C323D4C53290A546548
:103490007374206661696C75726520656E6420774F
:1034A000697468206572726F720A0000232D302BD8
:1034B00020000000686C4C006566674546470000C8
:1034C000303132333435363738394142434445465A
:1034D000000000003031323334353637383961621C
:1034E000636465660000000032F8FFFF48F8FFFFE4
:1034F00008F8FFFF08F8FFFF08F8FFFF08F8FFFFD4
:1035000048F8FFFF08F8FFFF08F8FFFF08F8FFFF83
:1035100008F8FFFFACF9FFFFB0F8FFFF44F9FFFF29
:1035200008F8FFFF08F8FFFFDCF9FFFF08F8FFFFCE
:10353000B0F8FFFF08F8FFFF08F8FFFF4CF9FFFFA6
:103540008E00000000010500010084000000010061
:1035500000002800440065007600690063006500F3
:1035600049006E007400650072006600610063002F
:103570006500470055004900440000004E0000006F
:103580007B00380032004300330043003200460025
:1035900035002D0039003500410034002D00340085
:1035A0004300380035002D00390035004500340057
:1035B0002D00350034004600380039004400430037
:1035C000320045004600310041007D00000000004F
:1035D00028000000000104000100000000000000BD
:1035E000000157494E555342000000000000000002
:1035F00000000000000000000A00000000000306B8
:1036000048003E00040004003000530065006C00D8
:103610006500630074006900760065005300750062
:103620007300700065006E00640045006E0061006C
:1036300062006C00650064000000040001000000EE
:10364000050F1600020710021EF400000A10030006
:103650000C00020AFF07000012034D005300460051
:103660005400310030003000010000003C034800ED
:10367000790064007200610055005300420033007D
:103680005F0053004E003A00200020002000200080
:10369000200020002000200020002000200020002A
:1036A000200020002000200014034800790064005E
:1036B00072006100550053004200330014034800BB
:1036C000790064007200610055005300420033002D
:1036D0001203480079006400720061004200750026
:1036E0007300000009024600010100806409040023
:1036F0000004FFFFFF0007058102000400063003FD
:10370000000000070501020004000630030000006D
:1037100007058202000400063003000000070502CE
:1037200002000400063003000000000009024B0004
:103730000201008064080B0002020200010904007B
:10374000000102020000052400100105240100010F
:103750000424020205240600010705820B0002076B
:1037600009040100020A0000000705810A0002079F
:103770000705010A0002070012010003000000090A
:10378000C016DC0500010102030100001201100255
:1037900000000040C016DC0500110102030100001A
:1037A0000000000000000000000000000000000019
:1037B0000000000000000000000000000000000009
:1037C00000000000000000000000000000000000F9
:1037D00000000000000000000000000000000000E9
:1037E00000000000000000000000000000000000D9
:1037F00000000000000000000000000000000000C9
:103800000002000004030904C016DC056002002069
:00000001FF
